:020000040800F2
:1000000010E1012035030008214D00088B1B00087A
:10001000654C0008650A00088565000800000000BE
:100020000000000000000000000000007D02000849
:10003000ED10000800000000D1020008055600087D
:100040004F0300084F0300084F0300084F03000848
:100050004F0300084F0300084F0300084F03000838
:100060004F0300084F0300084F0300084F03000828
:100070004F0300084F0300084F0300084F03000818
:100080004F0300084F0300084F0300084F03000808
:100090004F0300084F0300084F0300084F030008F8
:1000A0004F0300084F0300084F0300084F030008E8
:1000B0004F0300080D5700084F0300084F030008C6
:1000C0004F0300084F0300084F0300084F030008C8
:1000D0004F030008AD6300084F030008ED630008FC
:1000E0004F0300084F0300084F0300084F030008A8
:1000F0004F0300084F0300084F0300084F03000898
:100100004F0300084F0300084F0300084F03000887
:100110004F0300084F0300084F0300084F03000877
:100120004F0300084F0300084F0300084F03000867
:100130004F0300084F0300084F0300084F03000857
:100140004F0300084F0300084F0300084F03000847
:100150004F0300084F0300084F0300084F03000837
:100160004F0300084F0300084F0300084F03000827
:100170004F0300084F0300084F0300084F03000817
:100180004F0300084F03000800F002F800F067F882
:100190000AA090E8000C82448344AAF10107DA45E2
:1001A00001D100F05CF8AFF2090EBAE80F0013F0CD
:1001B000010F18BFFB1A43F001031847D4880F0042
:1001C000F4880F000A444FF0000C10F8013B13F0C4
:1001D000070408BF10F8014B1D1108BF10F8015BA0
:1001E000641E05D010F8016B641E01F8016BF9D193
:1001F00013F0080F1EBF10F8014BAD1C0C1B09D1EA
:100200006D1E58BF01F801CBFAD505E014F8016B5B
:1002100001F8016B6D1EF9D59142D6D370470000ED
:100220000023002400250026103A28BF78C1FBD8FF
:10023000520728BF30C148BF0B607047642900F0E7
:100240007B81782900F0B481732900F09983002024
:1002500070471FB52DF071FB1FBD10B510BD00F02C
:10026000D3FB1146FFF7F5FF25F05AFE00F0F1FB36
:1002700003B4FFF7F2FF03BC07F0EDFF2A4B196848
:100280000868B0E8F04F80F30988BFF36F8F4FF034
:10029000000080F3118870470000000006480068E5
:1002A000006880F3088862B661B6BFF34F8FBFF372
:1002B0006F8F00DF00BF00BF08ED00E0DFF80C002B
:1002C000016841F470010160704700BF88ED00E0F3
:1002D000EFF30980BFF36F8F134B1A681EF0100FF6
:1002E00008BF20ED108A20E9F04F106008B44FF0ED
:1002F000500080F31188BFF34F8FBFF36F8F2BF047
:10030000E5FE4FF0000080F3118808BC196808680A
:10031000B0E8F04F1EF0100F08BFB0EC108A80F369
:100320000988BFF36F8F704794000020EFF30580BA
:10033000704700000948804709480047FEE7FEE78C
:10034000FEE7FEE7FEE7FEE7FEE7FEE7FEE7FEE785
:1003500004480549054A064B704700001956000835
:100360008901000810A1012010E1012010C1012025
:1003700010C10120704753EA020C00F069802DE99A
:10038000F04B4FF00006002B1FBFB3FA83F503FAC2
:1003900005F424FA05F65E4012BF1643B2FA82F560
:1003A00002FA05F4C5F120051EBF22FA05FC44EA55
:1003B0000C04203556EA044C4FEA144418BF641C60
:1003C0004FF000084FF00009904271EB030C39D355
:1003D000002919BFB1FA81F701FA07F6B0FA80F7E0
:1003E00000FA07F6C7F120071EBF20FA07FC46EA0D
:1003F0000C062037B6FBF4FCA7EB0507103F07F00F
:100400001F0BCBF120060CFA0BFB2CFA06F644BFAF
:10041000B3460026202FA4BF5E464FF0000B5BEAD8
:10042000060C08BF4FF0010B19EB0B09ABFB027C6C
:1004300048EB0608C01B06FB02CC0BFB03CC71EBA0
:100440000C01C1E70B46024641464846BDE8F08B29
:1004500013B54FF000004FF00001AFF30080BDE88E
:100460001C4070470FB4044910B503AA029800F06D
:100470008BFA10BC5DF814FB800000202DE9F041E0
:100480000E460446002020622046E168884730B3CB
:10049000252805D0D4E901219047206A401CF2E7C5
:1004A000E168204600278847050018D0A5F14100E3
:1004B000192802D820354FF40067324629462046D5
:1004C0002760FFF7BBFE40B1012804D0F61D26F0DF
:1004D00007060836D8E7361DD6E72846DAE7206A49
:1004E000BDE8F08170B50C460546012A05D0287894
:1004F000800600D5EA69002302E0012305E05B1CC9
:10050000934202D2E05C0028F9D1A869E618C01A2B
:10051000A861286A184428622846AFF3008004E0E6
:10052000D5E9012114F8010B9047B442F8D32846CD
:10053000AFF3008070BD00002DE9F04106460024B5
:1005400010687529314616A510D0AFF30080002839
:1005500002DA404213A507E031688A0701D512A5E7
:1005600002E0490704D511A5012401E0AFF30080A2
:1005700000210A2206F1240709E0B0FBF2FCB0FBDF
:10058000F2F302FB1C00303078541846491C002856
:10059000F3D123462A463046BDE8F04100F06DB95C
:1005A000000000002D0000002B00000020000000D3
:1005B00070B504460D4621461068AFF300802188CF
:1005C000090502D50F4A7A4402E00E4A7A440E32F7
:1005D000002104F1240305E000F00F060009965DF8
:1005E0005E54491C0028F7D120780023000704D569
:1005F000702D02D009B1022311322046BDE87040AF
:1006000000F03BB9527F0F0040EA0103024630B5CB
:100610009B0710D14FF0013400E008C208C91D1B30
:100620009D4315EAC41FF8D013F0FF0102F8011B27
:100630000DD01B0AF8E711F8013B002B02F8013B33
:1006400005D011F8013B002B02F8013BF3D130BD7E
:1006500010B5431C02E010F8011B71B18107FAD1FB
:100660004FF0013202C88C1A8C4314EAC211F9D03F
:10067000C01A0A0603D0C01E10BDC01A10BD0A045D
:1006800001D0801E10BD0902FCD0401E10BD032AFF
:1006900040F2308010F0030C00F0158011F8013B9F
:1006A000BCF1020F624498BF11F801CB00F8013B86
:1006B00038BF11F8013BA2F1040298BF00F801CB4A
:1006C00038BF00F8013B11F0030300F02580083A21
:1006D000C0F0088051F8043B083A51F804CBA0E878
:1006E0000810F5E7121D5CBF51F8043B40F8043BCD
:1006F000AFF30080D20724BF11F8013B11F801CB02
:1007000048BF11F8012B24BF00F8013B00F801CBD2
:1007100048BF00F8012B704710B5203AC0F00B809D
:10072000B1E81850203AA0E81850B1E81850A0E8F5
:100730001850BFF4F5AF5FEA027C24BFB1E818504F
:10074000A0E8185044BF18C918C0BDE810405FEABF
:10075000827C24BF51F8043B40F8043B08BF70473B
:10076000D20728BF31F8023B48BF11F8012B28BF40
:1007700020F8023B48BF00F8012B704702F0FF034E
:1007800043EA032242EA024200F012B94FF00002AB
:1007900000B5134694469646203922BFA0E80C5077
:1007A000A0E80C50B1F12001BFF4F7AF090728BF52
:1007B000A0E80C5048BF0CC05DF804EB890028BFCE
:1007C00040F8042B08BF704748BF20F8022B11F0F7
:1007D000804F18BF00F8012B704700004FF0013C1C
:1007E00050F8042B51F8043B9A4221D1A2EB0C03A0
:1007F000934313EACC1317D150F8042B51F8043B60
:100800009A4215D1A2EB0C03934313EACC130BD1FC
:1008100050F8042B51F8043B9A4209D1A2EB0C0387
:10082000934313EACC13DBD04FF00000704700BFB6
:10083000D01A01BAB1FA81F101F0180122FA01F0DF
:10084000CB40C1F12001DBB2C0B2C01A2CFA01F3D7
:10085000D11A914311EAC311E6D17047704770472E
:100860007047704710B500F0C3F8006810BD10B5B0
:10087000044600F0BDF8046010BD2DE9F0470D46B8
:1008800099469246044600F124080168880604D57A
:10089000E06921F01001216000E00120A84201DDA3
:1008A000471B00E00027A1697A1902EB0900081A2A
:1008B000A0612078C00602D42046AFF30080002655
:1008C00008E0D4E901211AF806009047206A401C8C
:1008D000761C20624E45F4DB2078C0060AD52046FF
:1008E000AFF3008006E0D4E9012130209047206A70
:1008F000401C2062381EA7F10107F4DC07E0D4E9B0
:10090000012118F805009047206A401C2062281E2B
:10091000A5F10105F3DC2046AFF300802078000646
:1009200002D50220BDE8F0870120FBE701694A1CDF
:1009300002610878704700B58FB0CDE90131002120
:10094000059105497944CDE9031011466846FFF742
:1009500095FD0FB000BD0000E5FFFFFF10B5436936
:1009600013B1AFF3008001E0FFF7BCFD012010BD23
:10097000127800F124010A7000224A700122EDE78A
:1009800011684FF0FF32E9E7074B70B50D467B4425
:10099000FFF7D1FF0446284600F02EF810B14FF0C3
:1009A000FF3070BD204670BD0B1B01004FF00002F0
:1009B0000429C0F0128010F0030C3FF4E9AECCF132
:1009C000040CBCF1020F18BF00F8012BA8BF20F8DF
:1009D000022BA1EB0C01FFF7DBBE5FEAC17C24BF59
:1009E00000F8012B00F8012B48BF00F8012B7047DD
:1009F00000487047ACA00120007B00F080007047E9
:100A000000487047ACA001207546FFF7F9FFAE46DD
:100A100005006946534620F00700854618B020B50A
:100A2000FFF796FCBDE820404FF000064FF00007AE
:100A30004FF000084FF0000B21F00701AC46ACE886
:100A4000C009ACE8C009ACE8C009ACE8C0098D46F3
:100A5000704710B50446AFF300802046BDE8104053
:100A6000FFF706BCFEE700002DE9F0410D4D002424
:100A7000C5F8AC42022005F52B7509F0FBFC0A4FC6
:100A80000126C7F88062022007F5207709F0F2FC02
:100A90003C60022009F0EEFC2E60BDE8F04102202F
:100AA00009F0E8BC00804242008040421CB50121B0
:100AB000222004F081FC01248DF804408DF80640CA
:100AC00000948DF807406946054800F037FEE002C3
:100AD00000908DF804406946024800F02FFE1CBDCE
:100AE000000402400014024070B50B480125C0F814
:100AF000AC52022009F0BEFC084CC4F8805202201F
:100B000004F5207409F0B6FC00202060BDE87040B8
:100B1000022009F0AFBC0000008042420080404249
:100B20002DE9F0470024DFF84C80134E824625461D
:100B30000127A1466006040EC6F88072022009F063
:100B400099FCD8F82C0208B1641CE4B2C6F8809273
:100B5000022009F08FFC6D1CEDB2082DEAD3BAF12A
:100B6000000F04D0FFF780FF2046BDE8F087FFF7B5
:100B7000BBFFF9E700804242008040422DE9F04788
:100B800000240E4F0E4E0546A1464FF00108E8091D
:100B9000C7F8AC02022009F06DFCC6F88082022082
:100BA00009F068FCC6F880926806641C050EE4B281
:100BB000082CECD3C7F8AC82BDE8F0870080424235
:100BC0000080404270B50C4C0120C4F8AC020B4DC3
:100BD000C5F88002022004F52B7405F5207509F094
:100BE00049FC00262660022009F044FC2E60BDE886
:100BF0007040022009F03EBC00804242008040422A
:100C000070B50B4C0020C4F8AC02022004F52B7424
:100C100009F030FC07480125C0F88052022009F095
:100C200029FC2560BDE87040022009F023BC0000CB
:100C300000804242008040422DE9F0410024124EE3
:100C400001272546C6F8AC72022009F013FC38468D
:100C50000E4FC7F8800207E0641CE4B2FA2C03D9F7
:100C6000FFF7CEFF012506E0022009F003FCD6F8CD
:100C70002C020028F0D10020C7F88002022009F0E1
:100C8000F9FB2846BDE8F0810080424200804042E6
:100C900070B505461AF06BFA044628461AF022FA97
:100CA0001D280ED1204615F029F8064CC1B260640B
:100CB000A0691DF0DDF9616CBDE87040024804F0E8
:100CC000D9BD70BD300300200020004070B5194C24
:100CD000217881F0010121701AF008FA054616A06A
:100CE000FFF7C0FB20781A4E68B14FF47F0016F072
:100CF00048FB01460022284621F073FEA0691DF042
:100D0000B4F9FF210BE0002016F03BFB0146002266
:100D1000284621F066FEA0691DF0A4F900213046A6
:100D200004F0A8FD2846BDE870400022C82121F04B
:100D300064BE00003003002072756E2063616C6C2D
:100D40006261636B31202066756E0D0A0000000041
:100D50000020004010B504461AF009FA2046BDE80C
:100D600010401AF0BFB9000070B5184C617881F0DE
:100D7000010161701AF0BAF9054615A0FFF772FB80
:100D80006078194E68B14FF47F0016F0FAFA014608
:100D90000022284621F025FE606A1DF066F9002039
:100DA0000BE0002016F0EDFA01460022284621F063
:100DB00018FE606A1DF056F90120C6F8A802284600
:100DC000BDE870400022C82121F017BE300300208A
:100DD00072756E2063616C6C6261636B3220206699
:100DE000756E0D0A000000000080424210B50446F6
:100DF0001AF0BDF92046BDE810401AF073B90000A2
:100E000070B5164CA17881F00101A1701AF06EF94D
:100E1000054613A0FFF726FBA07860B14FF47F00D2
:100E200016F0AFFA01460022284621F0DAFD206BC9
:100E30001DF01BF90AE0002016F0A3FA014600227B
:100E4000284621F0CEFD206B1DF00CF92846BDE8A8
:100E500070400022C82121F0D0BD000030030020E6
:100E600072756E2063616C6C6261636B3320206607
:100E7000756E0D0A00000000F8B51E4614460F46B8
:100E8000214816F07EFA014638461DF001F900238C
:100E90001A46072138461DF0CFFE38461DF0E2F80D
:100EA0000A229621204621F069FC002532230722E0
:100EB0003946204600951DF0CDFE2046FF222946EA
:100EC00014F02AFF0022114B1146304600951BF00A
:100ED00009FD20221146304621F050FC00231A461D
:100EE000082130461DF0A8FE0022C821304621F01E
:100EF00084FD002016F045FA01463046BDE8F84072
:100F0000002221F06EBD00005EDCFE00F44C0F08F4
:100F1000034A00219160D1605321312004F01ABCB2
:100F20002800002070B5002400F024F8104D04E0E3
:100F3000641CE4B2012009F09DFAD5F8240210B136
:100F4000642CF5D30DE0642C0BD2002404E0641C67
:100F5000E4B2012009F08EFAD5F8240218B1642C0D
:100F600004D3012070BD642CF1D3FAE7002070BDDA
:100F7000000043421CB500208DF804004FF40070BF
:100F8000009001208DF807006946024800F0D6FB6A
:100F90001CBD0000001802401CB501204102009158
:100FA0008DF8040003218DF8051000218DF806103E
:100FB0008DF807006946024800F0C0FB1CBD000028
:100FC000001802407CB50121402004F0F5F9012011
:100FD0008DF8040003218DF8051000218DF806100E
:100FE0004402084D8DF8070000946946284600F039
:100FF000A5FB2146284600F002FC00F061F8FFF74F
:1010000091FF7CBD0018024070B50024104D04E033
:10101000641CE4B2012009F02DFAD5F8240208B1CD
:10102000642CF5D3002404E0641CE4B2012009F030
:1010300021FAD5F8240208B9642CF5D3282009F048
:1010400019FAD5F82402002800D0012070BD000054
:101050000000434270B5002004464006050EFFF72D
:10106000D3FF641C2843E4B2082CF6D370BD2DE9ED
:10107000FC410D46064600F023F8FFF753FF10B180
:101080000120BDE8FC8100246F46FFF7E3FF3855DF
:10109000641CE4B2052CF8D39DF800109DF8010003
:1010A0009DF803300A189DF8020003441A449DF885
:1010B00004309A4201D1297030700020E1E700002D
:1010C00010B5FFF769FF084C0020C4F8A4021420F3
:1010D00004F5297409F0B2F901202060BDE8104040
:1010E0001E2009F0C7B9000000004342704700000D
:1010F0008000A0F1C0400029016802D041F0010148
:1011000001E0024A1140016070470000FEFF0F003D
:1011100010B5D0E901121143D0E903231A4311435A
:101120004269114382691143C2691143026A114342
:10113000426A1143826A1143C26A1143026B11432E
:1011400002689200A2F1C04211608168082907D1AB
:1011500001688900A1F1C0410A6842F040020A60BA
:10116000416BD1E9002342EA03128B688C891B0290
:1011700043EA04431A430B8A42EA03520B7D89690E
:1011800042EA03620A4301688900A1F1C0414A6052
:10119000C16AB1F5804F08D000686FF070418000DF
:1011A000A0F1C040C0F8041110BD816BD1E900234B
:1011B00042EA03128B680C8A1B0243EA04531A4367
:1011C0000B7D896942EA036200680A438000A0F14E
:1011D000C040C0F8042110BD2DE9F04798B00121AE
:1011E0007A2004F0E9F80121084604F0F1F801251D
:1011F0008DF8045000244FF400408DF8064002267C
:1012000000908DF805608DF807506946994800F008
:1012100095FA8DF804604FF633708DF80640032779
:10122000DFF854A200908DF805708DF807506946DC
:10123000504600F083FA8DF804604FF683708DF805
:101240000640DFF8389200908DF805708DF8075051
:101250006946484600F072FA8DF804604FF23F008C
:101260008DF80640DFF8188200908DF805708DF833
:1012700007506946404600F061FA8DF804608DF829
:1012800006408DF805708DF8075040F23F407D4DC7
:1012900000906946284600F051FA0C220021504681
:1012A00000F09DFA0C220121504600F098FA0C2221
:1012B0000421504600F093FA0C220521504600F01C
:1012C0008EFA0C220821504600F089FA0C220921DE
:1012D000504600F084FA0C220A21504600F07FFAB2
:1012E0000C220B21504600F07AFA0C22114650468F
:1012F00000F075FA0C220D21504600F070FA0C2215
:101300000E21504600F06BFA0C220F21504600F0DF
:1013100066FA0C220021484600F061FA0C220121F5
:10132000484600F05CFA0C220721484600F057FAC4
:101330000C220821484600F052FA0C2209214846A6
:1013400000F04DFA0C220A21484600F048FA0C221F
:101350000B21484600F043FA0C221146484600F0A3
:101360003EFA0C220D21484600F039FA0C220E21DB
:10137000484600F034FA0C220F21484600F02FFABC
:101380000C220021404600F02AFA0C22012140469E
:1013900000F025FA0C220221404600F020FA0C222F
:1013A0000321404600F01BFA0C220421404600F0C5
:1013B00016FA0C220521404600F011FA0C221146C3
:1013C000404600F00CFA0C220D21404600F007FACE
:1013D0000C220E21404600F002FA0C220F2140465A
:1013E00000F0FDF90C220021284600F0F8F90C224B
:1013F0000121284600F0F3F90C220221284600F0D2
:10140000EEF90C220321284600F0E9F90C22042110
:10141000284600F0E4F90C220521284600F0DFF907
:101420000C220A21284600F0DAF90820CDE9124002
:101430001194169404201794CDE9020414941020FA
:10144000CDE90440159406940002CDE90A4011A8A4
:101450000994CDE90E400894079410900C940D94D3
:1014600002A8FFF755FE01210420FFF741FE18B046
:10147000BDE8F08700040240000C0240001002406A
:101480000014024000180240FEB50121062003F0BE
:1014900093FF0220002401908DF808408DF80A4047
:1014A00003208DF8090001258DF80B5001A925486E
:1014B00000F044F9680301908DF8085001A9224812
:1014C00000F03CF9FFF7F2FA204EC6F8B4421420BF
:1014D00006F52D7608F0B2FF3560322008F0AEFF39
:1014E0008DF8004001226946002000F003F9012236
:1014F0006946A42000F0FEF816208DF800000122B5
:101500006946802000F0F6F80C208DF800000122DA
:101510006946882000F0EEF802226946A12000F01A
:101520001DF89DF80000302803D19DF80100032824
:1015300001D00120FEBD43F2030105A0FEF792FF9A
:101540000020FEBD000402400008024000004142AD
:101550004354502049443A25780D0A002DE9F041C2
:1015600015460E460446FFF72DFB7020FFF706FBDD
:10157000FFF762FBE0B2FFF701FBFFF75DFBFFF750
:1015800021FB7120FFF7FAFAFFF756FB00246F1ECC
:1015900009E0BC4201D0012000E00020FFF7C0FAC2
:1015A0003055641CE4B2AC42F3D3BDE8F041FFF720
:1015B00027BB00002DE9F1474B4E00244FF00A0AEB
:1015C000307881B0401CC0B2B0FBFAF20AFB1201C5
:1015D000DFF81881A146307009B10A2867D20122CC
:1015E00001A90220FFF7BAFF9DF8040001075ED0B1
:1015F00000F00F0106295AD2FF208840C04340F076
:10160000C00088F820004546042008F017FF4FF07E
:101610000109002795F8201009FA04F0014239D099
:1016200033480422694630F81400FFF797FF95F815
:1016300030009DF80010C0079DF8010001F00F0177
:101640000ED000EB012105EB4400C1829DF8022081
:101650009DF8031002F00F0201EB022181810FE0DF
:1016600000EB0120C0F5F07105EB440081819DF88D
:1016700002209DF8031002F00F0201EB0221C1824B
:101680009DF800000821B1EB101F03D005EB4400CA
:10169000C7828781641CE4B2052CBBD3A8894FF0B4
:1016A000010918B9E88A08B98DF8047037709DF8F7
:1016B0000400C00610D198F82000010602D520F0E1
:1016C000800007E04FF6FF71A8F80C10A8F816107C
:1016D00000F0E00088F820003078F02801D986F882
:1016E00000A04846BDE8FC873C00002044000020E4
:1016F00004F102082DE9F04116460F460446002584
:10170000FFF760FA7020FFF739FAFFF795FAE0B2B9
:10171000FFF734FAFFF790FA002408E0385DFFF78E
:101720002DFAFFF789FA050003D1641CE4B2B44234
:10173000F4D3FFF765FA2846BDE8F081F0B5002341
:10174000012403270D6804FA03F21540954242D1A3
:10175000D0F800C05E0007FA06F52CEA050CC0F8C8
:1017600000C091F804C0D0F800E00CFA06FC4CEA86
:101770000E0CC0F800C091F804C0BCF1010F02D0FB
:10178000BCF1020F1FD1D0F808C02CEA050CC0F83C
:1017900008C091F805C0D0F808E00CFA06FC4CEA45
:1017A0000E0CC0F808C0D0F804C02CEA020CC0F837
:1017B00004C0426891F806C00CFA03FC1FFA8CFCC6
:1017C00042EA0C024260C268AA43C260CA79C56894
:1017D000B2402A43C2605B1C102BB3D3F0BD4B0751
:1017E000DB0E9A40C90810B500EB8100016A0F2496
:1017F0009C40A1430162016A1143016210BD018353
:10180000704700002DE9FF410121062003F0D4FDBF
:1018100000248DF804408DF8064003208DF8050063
:10182000DFF8C4800226012500968DF8075069462E
:101830004046FFF783FF680300908DF80450694627
:101840002A48FFF77BFFFFF731F9294FC7F8B44269
:101850000A2007F52D7708F0F1FD3D600A2008F019
:10186000EDFD8DF8045000968DF80740694640461E
:10187000FFF764FF642008F0E1FD042202A948F2AA
:10188000401000F04BF88DF80C4002A919A0FEF7AB
:10189000E9FD1BA102A8FEF7A1FF08BB48F2400525
:1018A0008DF80860012202A9284600F045F90122BE
:1018B00002A9E81D00F032F89DF80810602905D251
:1018C00011A0FEF7CFFD012000F00EF90A2008F06C
:1018D000B5FD8DF80840012202A9284600F02CF938
:1018E00004B00020BDE8F08100040240000802407E
:1018F000000041424354502049443A25730D0A00E8
:10190000393134370000000044656661756C74201D
:101910005665723A25640D0A000000002DE9F04179
:1019200015460E460446FFF74DF92820FFF726F925
:10193000FFF782F9200AFFF721F9FFF77DF9E0B2FE
:10194000FFF71CF9FFF778F9FFF73CF92920FFF7BB
:1019500015F9FFF771F900246F1E09E0BC4201D0B0
:10196000012000E00020FFF7DBF83055641CE4B2F2
:10197000AC42F3D3BDE8F041FFF742B92DE9F1479E
:10198000554E00244FF00A0A307885B0401CC0B292
:10199000B0FBFAF20AFB1201504DA046307009B1BB
:1019A0000A286ED248F24E19012205A94846FFF7CF
:1019B000B5FF00278DF8007001226946484600F007
:1019C000BBF89DF8140001075BD000F00F01062959
:1019D00057D2FF2088408DF80000C04395F8209032
:1019E00040F0C00085F82000A889A882E88AE88332
:1019F0004FF0010895F8201008FA04F0014225D0B4
:101A00003748042201A930F81400FFF787FF95F842
:101A100030009DF80510C0079DF8040000EB01217F
:101A200005EB44000AD0C1829DF806109DF80720FE
:101A300001EB0221C1F54871818107E081819DF8A8
:101A400006109DF8072001EB0221C182641CE4B25C
:101A5000052CCFD32349AA894FF001080B882846CB
:101A60009A4203D8C28A49888A4209D99DF814103B
:101A700001F00F0101290BD9C1898181018BE98214
:101A800037709DF8140000F08F0080280AD01AE00B
:101A9000818A8181C18BC18280218DF8141085F8E3
:101AA0002090EEE795F82000010603D520F0800095
:101AB00085F820004FF6FF7025F80C0F6881287D0F
:101AC00000F0E00028753078F02801D986F800A0F1
:101AD00006B04046BDE8F0873D00002044000020ED
:101AE000C6F102084C04002008B500218DF8001052
:101AF0008DF801000F4800BF435C9DF80020491C91
:101B00001A44C9B28DF80020B829F5D3D0B2C04329
:101B1000401C8DF80000B822064948F2470000F04A
:101B20000BF80222694648F2FF0000F005F8002099
:101B300008BD00000EF102082DE9F04116460F46DF
:101B400004460025FFF73EF82820FFF717F8FFF7B7
:101B500073F8200AFFF712F8FFF76EF8E0B2FFF70C
:101B60000DF8FFF769F8002408E0385DFFF706F884
:101B7000FFF762F8050003D1641CE4B2B442F4D369
:101B8000FFF73EF82846BDE8F081FEE71CB50121CD
:101B9000112003F011FC1C20009000208DF804009F
:101BA00003208DF8050001248DF80740694606489A
:101BB000FFF7C4FD02208DF8070000946946034832
:101BC000FFF7BCFD1CBD00000010024000000240F9
:101BD00070B50A490646002408884D8821464543C9
:101BE000204602F001FE03F00DF84FF0D84002E06D
:101BF000A0F88060641CAC42FAD370BD4C04002095
:101C00002DE9F04F2B492C260A46887192884FF413
:101C1000305A4FF4285B4FF4487541F6631E2B276A
:101C20004FF02A0C4FF0F00845F210594FF4A07411
:101C30004FF4F073B8B10C80A1F802804A4532D15C
:101C4000A1F808A0A1F80AB0380288810D804B8065
:101C5000A2F5A640103801D10B804C80BDE8F04FB2
:101C6000002002F001BDA1F800804C804A4507D158
:101C7000A1F808A0A1F80AB04FF42C50888105E023
:101C800072450E8105D14F81A1F80CC00B804D80AB
:101C900002E0A1F80AC08F81A2F5A6401038DDD17C
:101CA0000C804B80DAE70E81A1F80AC072458F8163
:101CB000CCD0CDE74C0400202DE9FE4F161ACDE91B
:101CC00000104FF000085D1A47464FF0FF30002E1D
:101CD00002DD4FF0010102E003D14FF000018B461D
:101CE00002E08346C6F10006002D02DD4FF0010040
:101CF00002E003D14FF00000824602E08246C5F1C7
:101D00000005AE4201DD344600E02C46601C4FF079
:101D10000009029018E0009881B2019880B200F0AA
:101D200019F8B0442F44A04504DD0198A8EB04083D
:101D300058440190A74203DD00983F1B5044009097
:101D400009F101001FFA80F902998945E3DDBDE838
:101D5000FE8F000000B502F047FD02F053FF03487C
:101D60004FF0D8410088A1F8800000BD3800002065
:101D70002DE9FC4F80460025144603200F46A0EBBA
:101D8000440649E0381B81B208EB050A01901FFAAE
:101D90008AF0FFF7DFFF781B81B208EB040900909F
:101DA0001FFA89F0FFF7D6FF07EB050B1FFA8BF13F
:101DB0001FFA89F0FFF7CEFF07EB04091FFA89F13C
:101DC0001FFA8AF0FFF7C6FFA8EB050A1FFA89F190
:101DD0001FFA8AF0FFF7BEFFA8EB04091FFA8BF188
:101DE0001FFA89F0FFF7B6FF019881B21FFA8AF057
:101DF000FFF7B0FF009881B21FFA89F0FFF7AAFF42
:101E00006D1C002E03DA06EB8506B61D04E0281BC8
:101E100006EB8006641E0A36A542B3DDBDE8FC8FE2
:101E20002DE9F0419046314A0D460446060A918854
:101E300010462F0A4089A1F5AA43103B0FD0A1F507
:101E4000C853633B24D002F0D0FE304602F0C1FEFE
:101E5000E0B202F0BEFE908902F0C7FE36E002F06A
:101E6000C4FE304602F0B5FE5089401C80B202F03C
:101E7000BCFEE0B202F0ADFE908902F0B6FE38463C
:101E800002F0A7FE9089401C80B202F0AEFE20E076
:101E9000917919B91188091B491E8CB202F0A5FE6F
:101EA000260A304602F095FEE0B202F092FE30467D
:101EB00002F08FFEE0B202F08CFE908902F095FEF7
:101EC000384602F086FEE8B202F083FE384602F0A1
:101ED00080FEE8B202F07DFE4FF0D840118920F874
:101EE0007E1FA0F80280BDE8F08100004C040020B5
:101EF0002DE9F04FA1B0002401217A201F9403F0B6
:101F00005BFA0121084603F063FA01258DF80450BD
:101F10004FF400408DF80640022600908DF80560D1
:101F20008DF807506946FE48FFF708FC8DF80460FD
:101F30004CF233708DF806400327DFF8E8930090E9
:101F40008DF805708DF8075069464846FFF7F6FB97
:101F50008DF804604FF680708DF80640DFF8C88376
:101F600000908DF805708DF8075069464046FFF7E0
:101F7000E5FB8DF8046028038DF8064000908DF88D
:101F800005708DF807506946E848FFF7D7FB8DF8D4
:101F9000046028038DF8064000908DF805708DF8D8
:101FA00007506946E248FFF7C9FB0C22002148466A
:101FB000FFF715FC0C2201214846FFF710FC0C220C
:101FC00004214846FFF70BFC0C2205214846FFF789
:101FD00006FC0C2208214846FFF701FC0C220921CF
:101FE0004846FFF7FCFB0C220A214846FFF7F7FBA7
:101FF0000C220E214846FFF7F2FB0C220F21484627
:10200000FFF7EDFB0C2207214046FFF7E8FB0C220F
:1020100008214046FFF7E3FB0C2209214046FFF769
:10202000DEFB0C220A214046FFF7D9FB0C220B21D4
:102030004046FFF7D4FB0C2211464046FFF7CFFB8A
:102040000C220D214046FFF7CAFB0C220E21404610
:10205000FFF7C5FB0C220F214046FFF7C0FB0C2207
:102060001146B248FFF7BBFB0C221146B048FFF700
:10207000B6FB0F20CDE911043C20CDE913041594E3
:1020800009201694CDE917400820CDE919401B948A
:102090001C940620CDE902041D941E941020CDE965
:1020A000044006940002CDE90A4008940794800099
:1020B000CDE90C40099411A8CDE90E4018A8109064
:1020C00002A8FFF725F801210620FFF711F83220BA
:1020D00008F0B4F9D32002F088FD02F093FA954C91
:1020E000A08002F08FFA2146888002F08BFA4FF62A
:1020F000FF7101EA00202146888002F083FA214620
:1021000047F28976898845F210370843214645F21F
:1021100010558880A0F5134141F663184FF4704ABA
:102120004FF2010B413973D0042002F05EFD02F042
:1021300069FAA08002F066FAA08002F063FA4FF616
:10214000FF7202EA0020A08002F05CFAA188084336
:10215000A0F50541A08052397ED0B04258D0D4209D
:1021600002F043FD02F04EFAA08002F04BFAA0808C
:1021700002F048FA02EA00209146A08002F042FAFA
:10218000A1880843A080B84242D05521504602F0B1
:1021900043FDAA21584602F03FFD52214FF20200B2
:1021A00002F03AFD08214FF2030002F035FD012153
:1021B0004FF2040002F030FD4FF4454002F015FDEF
:1021C00002F020FA09EA0020A0804A464CF20150B1
:1021D00002F00BFD02F016FAA1880843A080B0F5CA
:1021E000004F7DD0A84213D0A12002F0FEFC02F0E7
:1021F00009FAA08002F006FA02EA0020A08002F0AC
:1022000001FAA1880843A0F5AE41A080613968D0E9
:10221000A088A0F51341413905D0B84203D0A842A7
:1022200001D040451BD14FF02040D0F81C1121F0C7
:102230000F01C0F81C11D0F81C1121F47061C0F816
:102240001C11D0F81C1141F00301C0F81C11D0F88A
:102250001C1141F4007100E0ECE0C0F81C11A088F2
:10226000A0F5134141395AD0B04265D1112002F096
:10227000BCFC782008F0E2F8362002F0B6FC002022
:1022800002F0A7FC3A2002F0B0FC052002F0A1FC0D
:10229000B22002F0AAFC0C2002F09BFC0C2002F001
:1022A00098FC002002F095FC332002F092FC3320D1
:1022B00002F08FFCB72002F098FC352002F089FC78
:1022C000BB2002F092FC322002F083FCC02002F01E
:1022D0008CFC0C2002F07DFCC22002F086FC01E0A8
:1022E000ADE0A9E0012002F074FCC32002F07DFC07
:1022F000102002F06EFCC42002F077FC202002F0D7
:1023000068FCC62002F071FC0F2002F062FCD020B5
:1023100002F06BFCA42002F05CFCA1200DE090E038
:1023200000040240000C0240001002400014024071
:10233000001802404C04002095E102F04AFCE02025
:1023400002F053FCD02002F044FC002002F041FCDB
:10235000022002F03EFC072002F03BFC0A2002F0C3
:1023600038FC282002F035FC322002F032FC4420F8
:1023700002F02FFC422002F02CFC062002F029FC87
:102380000E2002F026FC122002F023FC142002F0A2
:1023900020FC172002F01DFCE12002F026FCD020DA
:1023A00002F017FC002002F014FC022002F011FCE5
:1023B000072002F00EFC0A2002F00BFC282002F09D
:1023C00008FC312002F005FC542002F002FC4720FA
:1023D00002F0FFFB0E2002F0FCFB1C2002F0F9FBD8
:1023E000172002F0F6FB1B2002F0F3FB1E2002F088
:1023F000F0FB2A2002F0F9FB002002F0EAFB0020AB
:1024000002F0E7FB002002F0E4FBEF2002F0E1FB2A
:102410002B2002F0EAFB002002F0DBFB002002F0A0
:10242000D8FB012002F0D5FB3F2002F0D2FB29208F
:1024300002F013B8A68019E7A4F80480F3E6A5809B
:10244000F1E6CF2002F0D1FB002002F0C2FBC12058
:1024500002F0BFFB302002F0BCFBED2002F0C5FB18
:10246000642002F0B6FB032002F0B3FB122002F05E
:10247000B0FB812002F0ADFBE82002F0B6FB852026
:1024800002F0A7FB102002F0A4FB7A2002F0A1FBCF
:10249000CB2002F0AAFB392002F09BFB2C2002F09B
:1024A00098FB002002F095FB342002F092FB022002
:1024B00002F08FFBF72002F098FB202002F089FB4E
:1024C000EA2002F092FB002002F083FB002002F0E1
:1024D00080FBC02002F089FB1B2002F07AFBC120A8
:1024E00002F083FB012002F074FBC52002F07DFBAB
:1024F000302002F06EFB302002F06BFBC72002F0B0
:1025000074FBB72002F065FB362002F06EFB48201A
:1025100002F05FFB3A2002F068FB552002F059FB05
:10252000B12002F062FB002002F053FB1A2002F0FF
:1025300050FBB62002F059FB0A2002F04AFBA22011
:1025400002F047FBF22002F050FB002002F041FBBA
:10255000262002F04AFB012002F03BFBE02002F0C3
:1025600044FB0F2002F035FB2A2002F032FB28202A
:1025700002F02FFB082002F02CFB0E2002F029FBBA
:10258000082002F026FB542002F023FBA92002F0D1
:1025900020FB432002F01DFB0A2002F01AFB0F2053
:1025A00002F017FB002002F014FB002002F011FBE8
:1025B000002002F00EFB002002F00BFBE12002F0F5
:1025C00014FB002002F005FB152002F002FB17208F
:1025D00002F0FFFA072002F0FCFA112002F0F9FAEB
:1025E000062002F0F6FA2B2002F0F3FA562002F051
:1025F000F0FA3C2002F0EDFA052002F0EAFA102091
:1026000002F0E7FA0F2002F0E4FA3F2002F0E1FACC
:102610003F2002F0DEFA0F2002F0DBFA2B2002F05E
:10262000E4FA002002F0D5FA002002F0D2FA0120EC
:1026300002F0CFFA3F2002F0CCFA2A2002F0D5FABD
:10264000002002F0C6FA002002F0C3FA002002F0D7
:10265000C0FAEF2002F0BDFA112002F0C6FA78208D
:1026600007F0ECFEE3E6B8427ED1ED2002F0BDFAC1
:10267000012002F0AEFAFE2002F0ABFAEE2002F0EA
:10268000B4FADE2002F0A5FA212002F0A2FAF1202D
:1026900002F0ABFA012002F09CFADF2002F0A5FA6A
:1026A000102002F096FAC42002F09FFA8F2002F068
:1026B00090FAC62002F099FA002002F08AFAE2208D
:1026C00002F087FAE22002F084FAE22002F081FAB6
:1026D000BF2002F08AFAAA2002F07BFAB02002F0B2
:1026E00084FA0D2002F075FA002002F072FA0D2033
:1026F00002F06FFA002002F06CFA112002F069FA81
:10270000002002F066FA192002F063FA002002F0BD
:1027100060FA212002F05DFA002002F05AFA2D2022
:1027200002F057FA002002F054FA3D2002F051FA6C
:10273000002002F04EFA5D2002F04BFA002002F079
:1027400048FA5D2002F045FA002002F042FAB1207A
:1027500002F04BFA802002F03CFA002002F039FA35
:102760008B2002F036FA00E0FDE3002002F031FA9F
:10277000962002F02EFA002002F02BFAB22002F08E
:1027800034FA002002F025FA002002F022FA02209A
:1027900002F01FFA002002F01CFA032002F019FADE
:1027A000002002F016FAB32002F01FFA002002F017
:1027B00010FA002002F00DFA002002F00AFA0020C0
:1027C00002F007FA002002F004FA002002F001FAF9
:1027D000002002F0FEF9002002F0FBF9002002F0D8
:1027E000F8F9002002F0F5F9002002F0F2F90020DB
:1027F00002F0EFF9002002F0ECF9002002F0E9F914
:10280000002002F0E6F9002002F0E3F9002002F0D7
:10281000E0F9002002F0DDF9002002F0DAF90020F2
:1028200002F0D7F9002002F0D4F9002002F0D1F92B
:10283000002002F0CEF9002002F0CBF9B42002F023
:10284000D4F98B2002F0C5F9002002F0C2F99620DD
:1028500002F0BFF9002002F0BCF9A12002F0B9F9A2
:10286000002002F0B6F9B52002F0BFF9022002F014
:10287000B0F9002002F0ADF9032002F0AAF900201F
:1028800002F0A7F9042002F0A4F9002002F0A1F957
:10289000B62002F0AAF9002002F09BF9002002F015
:1028A00098F9B72002F0A1F9002002F092F9002077
:1028B00002F08FF93F2002F08CF9002002F089F934
:1028C0005E2002F086F9002002F083F9642002F015
:1028D00080F9002002F07DF98C2002F07AF90020C6
:1028E00002F077F9AC2002F074F9002002F071F9DF
:1028F000DC2002F06EF9002002F06BF9702002F08B
:1029000068F9002002F065F9902002F062F90020D9
:1029100002F05FF9EB2002F05CF9002002F059F9B7
:10292000DC2002F056F9002002F053F9B82002F042
:102930005CF9002002F04DF9002002F04AF9002075
:1029400002F047F9002002F044F9002002F041F9BA
:10295000002002F03EF9002002F03BF9002002F0D6
:1029600038F9BA2002F041F9242002F032F90020AF
:1029700002F02FF9002002F02CF9002002F029F9D2
:10298000C12002F032F9202002F023F9002002F0E9
:1029900020F9542002F01DF9002002F01AF9FF205E
:1029A00002F017F9002002F014F9C22002F01DF91C
:1029B0000A2002F00EF9002002F00BF9042002F0C8
:1029C00008F9002002F005F9C32002F00EF93C20BE
:1029D00002F0FFF8002002F0FCF83A2002F0F9F8CB
:1029E000002002F0F6F8392002F0F3F8002002F09F
:1029F000F0F8372002F0EDF8002002F0EAF83C2071
:102A000002F0E7F8002002F0E4F8362002F0E1F8E6
:102A1000002002F0DEF8322002F0DBF8002002F0A5
:102A2000D8F82F2002F0D5F8002002F0D2F82C20A0
:102A300002F0CFF8002002F0CCF8292002F0C9F80B
:102A4000002002F0C6F8262002F0C3F8002002F0B1
:102A5000C0F8242002F0BDF8002002F0BAF82420CB
:102A600002F0B7F8002002F0B4F8232002F0B1F829
:102A7000002002F0AEF83C2002F0ABF8002002F09B
:102A8000A8F8362002F0A5F8002002F0A2F83220C3
:102A900002F09FF8002002F09CF82F2002F099F835
:102AA000002002F096F82C2002F093F8002002F0AB
:102AB00090F8292002F08DF8002002F08AF82620F4
:102AC00002F087F8002002F084F8242002F081F858
:102AD000002002F07EF8242002F07BF8002002F0B3
:102AE00078F8232002F075F8002002F072F8C42074
:102AF00002F07BF8622002F06CF8002002F069F826
:102B0000052002F066F8002002F063F8842002F04D
:102B100060F8002002F05DF8F02002F05AF8002082
:102B200002F057F8182002F054F8002002F051F893
:102B3000A42002F04EF8002002F04BF8182002F01A
:102B400048F8002002F045F8502002F042F800203A
:102B500002F03FF80C2002F03CF8002002F039F8B7
:102B6000172002F036F8002002F033F8952002F02A
:102B700030F8002002F02DF8F32002F02AF80020AF
:102B800002F027F8E62002F024F8002002F021F8F5
:102B9000C52002F02AF8322002F01BF8002002F0D3
:102BA00018F8442002F015F8002002F012F8652011
:102BB00002F00FF8002002F00CF8762002F009F87D
:102BC000002002F006F8882002F003F8002002F04E
:102BD00000F8C62002F009F8202001F0FAFF0020DA
:102BE00001F0F7FF172001F0F4FF002001F0F1FFE2
:102BF000012001F0EEFF002001F0EBFFC72001F003
:102C0000F4FF002001F0E5FF002001F0E2FF0020CA
:102C100001F0DFFF002001F0DCFFC82001F0E5FF3C
:102C2000002001F0D6FF002001F0D3FF002001F0CA
:102C3000D0FF002001F0CDFFC92001F0D6FF002019
:102C400001F0C7FF002001F0C4FF002001F0C1FF28
:102C5000002001F0BEFF002001F0BBFF002001F0CA
:102C6000B8FF002001F0B5FF002001F0B2FF002006
:102C700001F0AFFF002001F0ACFF002001F0A9FF40
:102C8000002001F0A6FF002001F0A3FF002001F0CA
:102C9000A0FF002001F09DFF002001F09AFFE0203E
:102CA00001F0A3FF162001F094FF002001F091FF36
:102CB0001C2001F08EFF002001F08BFF212001F08D
:102CC00088FF002001F085FF362001F082FF002000
:102CD00001F07FFF462001F07CFF002001F079FF2A
:102CE000522001F076FF002001F073FF642001F014
:102CF00070FF002001F06DFF7A2001F06AFF0020D4
:102D000001F067FF8B2001F064FF002001F061FFFC
:102D1000992001F05EFF002001F05BFFA82001F088
:102D200058FF002001F055FFB92001F052FF0020AC
:102D300001F04FFFC42001F04CFF002001F049FFDB
:102D4000CA2001F046FF002001F043FFD22001F02D
:102D500040FF002001F03DFFD92001F03AFF0020A4
:102D600001F037FFE02001F034FF002001F031FFD7
:102D7000F32001F02EFF002001F02BFFE12001F0F5
:102D800034FF162001F025FF002001F022FF1C2057
:102D900001F01FFF002001F01CFF222001F019FFAD
:102DA000002001F016FF362001F013FF002001F093
:102DB00010FF452001F00DFF002001F00AFF522016
:102DC00001F007FF002001F004FF642001F001FF83
:102DD000002001F0FEFE7A2001F0FBFE002001F051
:102DE000F8FE8B2001F0F5FE002001F0F2FE9920A4
:102DF00001F0EFFE002001F0ECFEA82001F0E9FE5A
:102E0000002001F0E6FEB92001F0E3FE002001F011
:102E1000E0FEC42001F0DDFE002001F0DAFECA2051
:102E200001F0D7FE002001F0D4FED22001F0D1FE47
:102E3000002001F0CEFED82001F0CBFE002001F0F2
:102E4000C8FEE02001F0C5FE002001F0C2FEF32024
:102E500001F0BFFE002001F0BCFEE22001F0C5FE43
:102E6000052001F0B6FE002001F0B3FE0B2001F0BA
:102E7000B0FE002001F0ADFE1B2001F0AAFE0020F4
:102E800001F0A7FE342001F0A4FE002001F0A1FE15
:102E9000442001F09EFE002001F09BFE4F2001F037
:102EA00098FE002001F095FE612001F092FE0020C6
:102EB00001F08FFE792001F08CFE002001F089FEE8
:102EC000882001F086FE002001F083FE972001F0AB
:102ED00080FE002001F07DFEA62001F07AFE002099
:102EE00001F077FEB72001F074FE002001F071FEC2
:102EF000C22001F06EFE002001F06BFEC72001F041
:102F000068FE002001F065FED12001F062FE002085
:102F100001F05FFED62001F05CFE002001F059FEBA
:102F2000DD2001F056FE002001F053FEF32001F0F9
:102F300050FE002001F04DFEE32001F056FE05207A
:102F400001F047FE002001F044FE0A2001F041FE9E
:102F5000002001F03EFE1C2001F03BFE002001F0AD
:102F600038FE332000E0FAE201F033FE002001F0E9
:102F700030FE442001F02DFE002001F02AFE5020FA
:102F800001F027FE002001F024FE622001F021FE66
:102F9000002001F01EFE782001F01BFE002001F051
:102FA00018FE882001F015FE002001F012FE972087
:102FB00001F00FFE002001F00CFEA62001F009FE3A
:102FC000002001F006FEB72001F003FE002001F012
:102FD00000FEC22001F0FDFD002001F0FAFDC72037
:102FE00001F0F7FD002001F0F4FDD12001F0F1FD2A
:102FF000002001F0EEFDD52001F0EBFD002001F0F6
:10300000E8FDDD2001F0E5FD002001F0E2FDF32008
:1030100001F0DFFD002001F0DCFDE42001F0E5FD22
:10302000012001F0D6FD002001F0D3FD012001F0C8
:10303000D0FD002001F0CDFD022001F0CAFD0020EE
:1030400001F0C7FD2A2001F0C4FD002001F0C1FD00
:103050003C2001F0BEFD002001F0BBFD4B2001F043
:10306000B8FD002001F0B5FD5D2001F0B2FD0020AB
:1030700001F0AFFD742001F0ACFD002001F0A9FDCE
:10308000842001F0A6FD002001F0A3FD932001F0B3
:10309000A0FD002001F09DFDA22001F09AFD00207E
:1030A00001F097FDB32001F094FD002001F091FDA7
:1030B000BE2001F08EFD002001F08BFDC42001F048
:1030C00088FD002001F085FDCD2001F082FD00206B
:1030D00001F07FFDD32001F07CFD002001F079FD9F
:1030E000DD2001F076FD002001F073FDF32001F0FA
:1030F00070FD002001F06DFDE52001F076FD00205F
:1031000001F067FD002001F064FD002001F061FD89
:10311000002001F05EFD022001F05BFD002001F0C7
:1031200058FD292001F055FD002001F052FD3C2002
:1031300001F04FFD002001F04CFD4B2001F049FD56
:10314000002001F046FD5D2001F043FD002001F06C
:1031500040FD742001F03DFD002001F03AFD842087
:1031600001F037FD002001F034FD932001F031FD26
:10317000002001F02EFDA22001F02BFD002001F027
:1031800028FDB32001F025FD002001F022FDBE2026
:1031900001F01FFD002001F01CFDC42001F019FD0D
:1031A000002001F016FDCD2001F013FD002001F0FC
:1031B00010FDD32001F00DFD002001F00AFDDC2000
:1031C00001F007FD002001F004FDF32001F001FDF6
:1031D000002001F0FEFCE62001F007FD112001F0C7
:1031E000F8FC002001F0F5FC342001F0F2FC002096
:1031F00001F0EFFC562001F0ECFC002001F0E9FCAE
:10320000762001F0E6FC002001F0E3FC772001F0DD
:10321000E0FC002001F0DDFC662001F0DAFC00207B
:1032200001F0D7FC882001F0D4FC002001F0D1FC93
:10323000992001F0CEFC002001F0CBFCBB2001F076
:10324000C8FC002001F0C5FC992001F0C2FC002060
:1032500001F0BFFC662001F0BCFC002001F0B9FCCD
:10326000552001F0B6FC002001F0B3FC552001F020
:10327000B0FC002001F0ADFC452001F0AAFC0020CC
:1032800001F0A7FC432001F0A4FC002001F0A1FC08
:10329000442001F09EFC002001F09BFCE72001F09F
:1032A000A4FC322001F095FC002001F092FC552096
:1032B00001F08FFC002001F08CFC762001F089FCED
:1032C000002001F086FC662001F083FC002001F064
:1032D00080FC672001F07DFC002001F07AFC672073
:1032E00001F077FC002001F074FC872001F071FCF4
:1032F000002001F06EFC992001F06BFC002001F031
:1033000068FCBB2001F065FC002001F062FC992004
:1033100001F05FFC002001F05CFC772001F059FC1B
:10332000002001F056FC442001F053FC002001F085
:1033300050FC562001F04DFC002001F04AFC2320F7
:1033400001F047FC002001F044FC332001F041FC77
:10335000002001F03EFC452001F03BFC002001F084
:1033600038FCE82001F041FC002001F032FC002094
:1033700001F02FFC992001F02CFC002001F029FC29
:10338000872001F026FC002001F023FC882001F0BA
:1033900020FC002001F01DFC772001F01AFC002029
:1033A00001F017FC662001F014FC002001F011FC74
:1033B000882001F00EFC002001F00BFCAA2001F097
:1033C00008FC002001F005FCBB2001F002FC0020FD
:1033D00001F0FFFB992001F0FCFB002001F0F9FB5C
:1033E000662001F0F6FB002001F0F3FB552001F010
:1033F000F0FB002001F0EDFB552001F0EAFB00207E
:1034000001F0E7FB442001F0E4FB002001F0E1FBC8
:10341000442001F0DEFB002001F0DBFB552001F031
:10342000D8FB002001F0D5FBE92001F0DEFBAA204B
:1034300001F0CFFB002001F0CCFB002001F0C9FB24
:10344000002001F0C6FB002001F0CFFBAA2001F014
:10345000C0FBCF2001F0C9FB002001F0BAFB002027
:1034600001F0B7FB002001F0B4FB002001F0B1FB3C
:10347000002001F0AEFB002001F0ABFB002001F0CA
:10348000A8FB002001F0A5FB002001F0A2FB00201A
:1034900001F09FFB002001F09CFB002001F099FB54
:1034A000002001F096FB002001F093FB002001F0CA
:1034B00090FB002001F08DFB002001F08AFBF02042
:1034C00001F093FB002001F084FB502001F081FB10
:1034D000002001F07EFB002001F07BFB002001F0CA
:1034E00078FBF32001F081FB002001F072FBF92052
:1034F00001F07BFB062001F06CFB102001F069FB62
:10350000292001F066FB002001F063FB3A2001F066
:103510006CFB552001F05DFB112001F066FB64207F
:1035200006F08CFF292001F060FB352001F05DFBE7
:10353000002001F04EFB512001F057FBFF2001F06D
:1035400048FB532001F051FB2C2001F042FB552099
:1035500001F04BFB822001F03CFB2C20FEE3A84253
:103560007ED155215346504601F056FBAA215C46B8
:10357000584601F051FB4FF202055221284601F056
:103580004BFB6E1C0821304601F046FBAF1C0121AD
:10359000384601F041FB0D214FF4304001F03CFB77
:1035A0000D214BF2010001F037FB0D214BF202001F
:1035B00001F032FB4FF436483421404601F02CFB39
:1035C00034214BF2016001F027FB34214BF2026001
:1035D00001F022FB4FF431490D21484601F01CFB5C
:1035E0004BF2011A0D21504601F016FB0D214BF252
:1035F000021001F011FB4FF4374B3421584601F013
:103600000BFB34214BF2017001F006FB34214BF22D
:10361000027001F001FB00214FF4324001F0FCFA8E
:1036200000214BF2012001F0F7FA00214BF20220B9
:1036300001F0F2FA24214FF4384001F0EDFA242190
:103640004BF6010001F0E8FA24214BF6020001F0EC
:10365000E3FA01214FF43F4001F0DEFA0F2100E0D0
:10366000FEE34FF4334001F0D7FA0F214BF2013063
:1036700001F0D2FA0F214BF2023001F0CDFA3421E1
:103680004FF4394001F0C8FA34214BF6011001F033
:10369000C3FA34214BF6021001F0BEFA08214FF4B0
:1036A000354001F0B9FA08214BF2015001F0B4FAAB
:1036B00008214BF2025001F0AFFA03214FF44240CF
:1036C00001F0AAFA24214FF43A4001F0A5FA24218E
:1036D0004BF6012001F0A0FA24214BF6022001F064
:1036E0009BFA00214FF43C4001F096FA78214BF60A
:1036F000014001F091FA00214BF6024001F08CFAF2
:1037000000214FF43D4001F087FA78214BF601503B
:1037100001F082FA00214BF6025001F07DFA0021FF
:103720004FF43E4001F078FA64214BF6016001F05D
:1037300073FA00214FF4514001F06EFA33214DF23B
:10374000011001F069FA00214DF2021001F064FA53
:1037500034214DF2031001F05FFA00214DF2041004
:1037600001F05AFA3A214DF2051001F055FA002104
:103770004DF2061001F050FA4A214DF2071001F007
:103780004BFA00214DF2081001F046FA5C214DF28F
:10379000091001F041FA00214DF20A1001F03CFA43
:1037A00081214DF20B1001F037FA00214DF20C107F
:1037B00001F032FAA6214DF20D1001F02DFA002190
:1037C0004DF20E1001F028FAE5214DF20F1001F034
:1037D00023FA01214DF2101001F01EFA13214DF2CF
:1037E000111001F019FA01214DF2121001F014FA32
:1037F00054214DF2131001F00FFA01214DF2141073
:1038000001F00AFA82214DF2151001F005FA0121AA
:103810004DF2161001F000FACA214DF2171001F016
:10382000FBF902214DF2181001F0F6F900214DF2DA
:10383000191001F0F1F902214DF21A1001F0ECF922
:1038400001214DF21B1001F0E7F902214DF21C108D
:1038500001F0E2F934214DF21D1001F0DDF90221F1
:103860004DF21E1001F0D8F967214DF21F1001F042
:10387000D3F902214DF2201001F0CEF984214DF24E
:10388000211001F0C9F902214DF2221001F0C4F912
:10389000A4214DF2231001F0BFF902214DF22410B2
:1038A00001F0BAF9B7214DF2251001F0B5F9022166
:1038B0004DF2261001F0B0F9CF214DF2271001F0A2
:1038C000ABF902214DF2281001F0A6F9DE214DF2EC
:1038D000291001F0A1F902214DF22A1001F09CF902
:1038E000F2214DF22B1001F097F902214DF22C102C
:1038F00001F092F9FE214DF22D1001F08DF9032116
:103900004DF22E1001F088F910214DF22F1001F028
:1039100083F903214DF2301001F07EF933214DF28D
:10392000311001F079F903214DF2321001F074F9F0
:103930006D214DF2331001F06FF900214FF4524028
:1039400001F06AF933214DF2012001F065F90021FF
:103950004DF2022001F060F934214DF2032001F014
:103960005BF900214DF2042001F056F93A214DF2A5
:10397000052001F051F900214DF2062001F04CF92B
:103980004A214DF2072001F047F900214DF20820AD
:1039900001F042F95C214DF2092001F03DF90021CE
:1039A0004DF20A2001F038F981214DF20B2001F08F
:1039B00033F900214DF20C2001F02EF9A6214DF231
:1039C0000D2001F029F900214DF20E2001F024F91B
:1039D000E5214DF20F2001F01FF901214DF21020D9
:1039E00001F01AF913214DF2112001F015F901210E
:1039F0004DF2122001F010F954214DF2132001F084
:103A00000BF901214DF2142001F006F982214DF24B
:103A1000152001F001F901214DF2162001F0FCF80A
:103A2000CA214DF2172001F0F7F802214DF21820BB
:103A300001F0F2F800214DF2192001F0EDF8022119
:103A40004DF21A2001F0E8F801214DF21B2001F09F
:103A5000E3F802214DF21C2001F0DEF834214DF292
:103A60001D2001F0D9F802214DF21E2001F0D4F8FA
:103A700067214DF21F2001F0CFF802214DF22020E6
:103A800001F0CAF884214DF2212001F0C5F802218D
:103A90004DF2222001F0C0F8A4214DF2232001F0C4
:103AA000BBF802214DF2242001F0B6F8B7214DF207
:103AB000252001F0B1F802214DF2262001F0ACF8EA
:103AC000CF214DF2272001F0A7F802214DF2282046
:103AD00001F0A2F8DE214DF2292001F09DF802212B
:103AE0004DF22A2001F098F8F2214DF22B2001F03E
:103AF00093F802214DF22C2001F08EF8FE214DF2B8
:103B00002D2001F089F803214DF22E2001F084F8D8
:103B100010214DF22F2001F07FF803214DF23020CB
:103B200001F07AF833214DF2312001F075F80321CC
:103B30004DF2322001F070F86D214DF2332001F08A
:103B40006BF800214FF4534001F066F833214DF239
:103B5000013001F061F800214DF2023001F05CF813
:103B600034214DF2033001F057F800214DF20430BA
:103B700001F052F83A214DF2053001F04DF80021E4
:103B80004DF2063001F048F84A214DF2073001F0BD
:103B900043F800214DF2083001F03EF85C214DF26F
:103BA000093001F039F800214DF20A3001F034F803
:103BB00081214DF20B3001F02FF800214DF20C3035
:103BC00001F02AF8A6214DF20D3001F025F8002170
:103BD0004DF20E3001F020F8E5214DF20F3001F0EA
:103BE0001BF801214DF2103001F016F813214DF2AF
:103BF000113001F011F801214DF2123001F00CF8F2
:103C000054214DF2133001F007F801214DF2143028
:103C100001F002F882214DF2153000F0FDFF012184
:103C20004DF2163000F0F8FFCA214DF2173000F0C7
:103C3000F3FF02214DF2183000F0EEFF00214DF2AB
:103C4000193000F0E9FF02214DF21A3000F0E4FFD4
:103C500001214DF21B3000F0DFFF02214DF21C303C
:103C600000F0DAFF34214DF21D3000F0D5FF0221C3
:103C70004DF21E3000F0D0FF67214DF21F3000F0F2
:103C8000CBFF02214DF2203000F0C6FF84214DF21F
:103C9000213000F0C1FF02214DF2223000F0BCFFC4
:103CA000A4214DF2233000F0B7FF02214DF2243061
:103CB00000F0B2FFB7214DF2253000F0ADFF022138
:103CC0004DF2263000F0A8FFCF214DF2273000F052
:103CD000A3FF02214DF2283000F09EFFDE214DF2BD
:103CE000293000F099FF02214DF22A3000F094FFB4
:103CF000F2214DF22B3000F08FFF02214DF22C30DB
:103D000000F08AFFFE214DF22D3000F085FF0321E7
:103D10004DF22E3000F080FF10214DF22F3000F0D8
:103D20007BFF03214DF2303000F076FF33214DF25E
:103D3000313000F071FF03214DF2323000F06CFFA2
:103D40006D214DF2333000F067FF00214FF45440F5
:103D500000F062FF33214DF2014000E07DE300F00E
:103D60005BFF00214DF2024000F056FF34214DF27E
:103D7000034000F051FF00214DF2044000F04CFFE1
:103D80003A214DF2054000F047FF00214DF2064078
:103D900000F042FF4A214DF2074000F03DFF0021B4
:103DA0004DF2084000F038FF5C214DF2094000F070
:103DB00033FF00214DF20A4000F02EFF81214DF229
:103DC0000B4000F029FF00214DF20C4000F024FFD1
:103DD000A6214DF20D4000F01FFF00214DF20E40D4
:103DE00000F01AFFE5214DF20F4000F015FF012110
:103DF0004DF2104000F010FF13214DF2114000F081
:103E00000BFF01214DF2124000F006FF54214DF24C
:103E1000134000F001FF01214DF2144000F0FCFEC0
:103E200082214DF2154000F0F7FE01214DF21640BF
:103E300000F0F2FECA214DF2174000F0EDFE022123
:103E40004DF2184000F0E8FE00214DF2194000F05C
:103E5000E3FE02214DF21A4000F0DEFE012100E0F7
:103E6000FEE24DF21B4000F0D7FE02214DF21C4055
:103E700000F0D2FE34214DF21D4000F0CDFE0221B3
:103E80004DF21E4000F0C8FE67214DF21F4000F0C9
:103E9000C3FE02214DF2204000F0BEFE84214DF20F
:103EA000214000F0B9FE02214DF2224000F0B4FEA4
:103EB000A4214DF2234000F0AFFE02214DF2244038
:103EC00000F0AAFEB7214DF2254000F0A5FE022128
:103ED0004DF2264000F0A0FECF214DF2274000F029
:103EE0009BFE02214DF2284000F096FEDE214DF2AD
:103EF000294000F091FE02214DF22A4000F08CFE94
:103F0000F2214DF22B4000F087FE02214DF22C40B1
:103F100000F082FEFE214DF22D4000F07DFE0321D7
:103F20004DF22E4000F078FE10214DF22F4000F0AF
:103F300073FE03214DF2304000F06EFE33214DF24E
:103F4000314000F069FE03214DF2324000F064FE82
:103F50006D214DF2334000F05FFE00214FF45540DB
:103F600000F05AFE33214DF2015000F055FE0021C1
:103F70004DF2025000F050FE34214DF2035000F09B
:103F80004BFE00214DF2045000F046FE3A214DF266
:103F9000055000F041FE00214DF2065000F03CFEBD
:103FA0004A214DF2075000F037FE00214DF2085033
:103FB00000F032FE5C214DF2095000F02DFE002190
:103FC0004DF20A5000F028FE81214DF20B5000F016
:103FD00023FE00214DF20C5000F01EFEA6214DF2F2
:103FE0000D5000F019FE00214DF20E5000F014FEAD
:103FF000E5214DF20F5000F00FFE01214DF210505F
:1040000000F00AFE13214DF2115000F005FE0121CF
:104010004DF2125000F000FE54214DF2135000F00A
:10402000FBFD01214DF2145000F0F6FD82214DF20E
:10403000155000F0F1FD01214DF2165000F0ECFD9D
:10404000CA214DF2175000F0E7FD02214DF2185041
:1040500000F0E2FD00214DF2195000F0DDFD0221DB
:104060004DF21A5000F0D8FD01214DF21B5000F026
:10407000D3FD02214DF21C5000F0CEFD34214DF253
:104080001D5000F0C9FD02214DF21E5000F0C4FD8C
:1040900067214DF21F5000F0BFFD02214DF220506C
:1040A00000F0BAFD84214DF2215000F0B5FD02214F
:1040B0004DF2225000F0B0FDA4214DF2235000F04B
:1040C000ABFD02214DF2245000F0A6FDB7214DF2C8
:1040D000255000F0A1FD02214DF2265000F09CFD7C
:1040E000CF214DF2275000F097FD02214DF22850CC
:1040F00000F092FDDE214DF2295000F08DFD0221ED
:104100004DF22A5000F088FDF2214DF22B5000F0C4
:1041100083FD02214DF22C5000F07EFDFE214DF278
:104120002D5000F079FD03214DF22E5000F074FD6A
:1041300010214DF22F5000F06FFD03214DF2305051
:1041400000F06AFD33214DF2315000F065FD03218E
:104150004DF2325000F060FD6D214DF2335000F011
:104160005BFD00214FF4564000F056FD33214DF227
:10417000016000F051FD00214DF2026000F04CFDA5
:1041800034214DF2036000F047FD00214DF2046040
:1041900000F042FD3A214DF2056000F03DFD0021A6
:1041A0004DF2066000F038FD4A214DF2076000F044
:1041B00033FD00214DF2086000F02EFD5C214DF230
:1041C000096000F029FD00214DF20A6000F024FD95
:1041D00081214DF20B6000F01FFD00214DF20C60BB
:1041E00000F01AFDA6214DF20D6000F015FD002132
:1041F0004DF20E6000F010FDE5214DF20F6000F071
:104200000BFD01214DF2106000F006FD13214DF26F
:10421000116000F001FD01214DF2126000F0FCFC84
:1042200054214DF2136000F0F7FC01214DF21460AF
:1042300000F0F2FC82214DF2156000F0EDFC01214E
:104240004DF2166000F0E8FCCA214DF2176000F054
:10425000E3FC02214DF2186000F0DEFC00214DF27B
:10426000196000F0D9FC02214DF21A6000F0D4FC74
:1042700001214DF21B6000F0CFFC02214DF21C60C9
:1042800000F0CAFC34214DF21D6000F0C5FC022193
:104290004DF21E6000F0C0FC67214DF21F6000F07F
:1042A000BBFC02214DF2206000F0B6FC84214DF2EF
:1042B000216000F0B1FC02214DF2226000F0ACFC64
:1042C000A4214DF2236000F0A7FC02214DF22460EE
:1042D00000F0A2FCB7214DF2256000F09DFC022108
:1042E0004DF2266000F098FCCF214DF2276000F0DF
:1042F00093FC02214DF2286000F08EFCDE214DF28D
:10430000296000F089FC02214DF22A6000F084FC53
:10431000F2214DF22B6000F07FFC02214DF22C6067
:1043200000F07AFCFE214DF22D6000F075FC0321B7
:104330004DF22E6000F070FC10214DF22F6000F065
:104340006BFC03214DF2306000F066FC33214DF22E
:10435000316000F061FC03214DF2326000F05CFC42
:104360006D214DF2336000F057FC5521184600F0E6
:1043700053FCAA21204600F04FFC5221284600F0B1
:104380004BFC0821304600F047FC0021384600F085
:1043900043FCCC21484600F03FFC0021504600F091
:1043A0003BFC0521404600F037FC7021584600F0E8
:1043B00033FC70214BF2017000F02EFC01214FF410
:1043C000384000F029FC03214BF6010000F024FCEA
:1043D00003214BF6020000F01FFC03214BF6030003
:1043E00000F01AFC02214FF43C4000F015FC0021C3
:1043F0004BF6014000F010FC00214BF6024000F0AB
:104400000BFCD0214FF4494000F006FC02214CF691
:10441000011000F001FC50214CF6021000F0FCFBF2
:1044200050214CF6031000F0F7FB50214CF604101D
:1044300000F0F2FB00214FF4545000F0EDFB552149
:104440004FF4685000F0E8FB4FF4885000F0CDFBCB
:10445000782006F00FF84FF4245000F0C6FBB9E0C6
:104460004045FCD1E22000F0C0FB1D2000F0B1FB74
:10447000022000F0AEFB042000F0ABFB642005F04E
:10448000F9FFE02000F0B1FB012000F0A2FB0A20C0
:1044900005F0D4FFE02000F0A8FB032000F099FB1A
:1044A0000C2005F0CBFF012000F09FFB0A2005F057
:1044B000C5FFE62000F099FB2F2000F08AFBFF20CB
:1044C00000F087FBFF2000F084FBB02000F08DFBA4
:1044D000202000F07EFB002000F07BFB032000F09A
:1044E00078FB40F21F3000F074FB012000F071FBFC
:1044F00040F2DF1000F06DFB002000F06AFBB420FA
:1045000000F073FB042000F064FB40F21F4000F059
:1045100060FB002000F05DFB2E2000F05AFB002025
:1045200000F057FB002000F054FB002000F051FB8E
:10453000002000F04EFBB62000F057FB022000F0F8
:1045400048FB4FF4037000F044FB002000F041FBF7
:10455000172000F03EFB152000F03BFB002000F090
:1045600038FB002000F035FBF02000F03EFB03207C
:1045700000F02FFB292000F038FBD02000F035FBA5
:10458000002000F026FBBE2000F02FFB052000F0ED
:1045900020FBFE2000F01DFB012000F01AFB002094
:1045A00000F017FB002000F014FB002000F011FBCE
:1045B000B82000F01AFB032000F00BFB012000F0F4
:1045C00008FBBA2000F011FB012000F002FB642080
:1045D00000F022F80120FDF713FB05490120C1F886
:1045E000BC024FF6FF70FDF7F3FA21B0BDE8F08F83
:1045F000008040420246012000E05043491EC9B2FB
:10460000FBD2704708B54FF0D840B0F88000ADF845
:104610000000BDF8000008BD10B50246BE2000F045
:10462000E4FA052000F0D5FA104628F0D0FD9FED01
:104630000C1B53EC112B28F019FE28F09BFD80B2C7
:1046400000F0C7FA012000F0C4FAFF2000F0C1FA20
:10465000002000F0BEFABDE81040002000F0B9BA1A
:10466000666666666666044070B55E4C0023214649
:10467000A279898841F66316012A01D01AB10CE0AB
:10468000B14202D109E0B14207D1082805D2DFE8E2
:1046900000F0161812140C19100E082812D2DFE8B8
:1046A00000F0110406080A0C0E1080230AE04023D3
:1046B00008E0C02306E0202304E0602302E0A023FA
:1046C00000E0E02345F21055A94202D14FF45850C2
:1046D00000E03620A1F51342413A03D0A1F5EE42A5
:1046E000893A01D143F00803194600F095FAA188F0
:1046F000B1420AD098062088628802D5904202D33F
:1047000003E0904201D9228060806089A94240D1B3
:1047100000F06BFA002000F05CFA6089401C80B267
:1047200000F063FA002000F054FA6089801C80B227
:1047300000F05BFA2088401EC0F30F2000F049FA19
:104740006089C01C80B200F050FA2078401EC0B2D0
:1047500000F03FFAA08900F048FA002000F039FA92
:10476000A089401C80B200F040FA002000F031FA2D
:10477000A089801C80B200F038FA6088401EC0F327
:104780000F2000F026FAA089C01C80B200F02DFA9C
:1047900021E000F02AFA002000F01BFA002000F0CF
:1047A00018FA2088401EC0F30F2000F012FA20787B
:1047B000401EC0B200F00DFAA08900F016FA0020E9
:1047C00000F007FA002000F004FA6088401EC0F3F1
:1047D0000F2000F0FEF9A078BDE87040401EC0B286
:1047E00000F0F7B94C040020F0B53B4A0D460446F2
:1047F000060A918810462F0A4089A1F5C853633BE9
:1048000016D0A1F5AA43103B4CD000F0EEF930468B
:1048100000F0DFF9E0B200F0DCF9908900F0E5F992
:10482000384600F0D6F9E8B2BDE8F04000F0D1B962
:10483000917931B300F0D9F9304600F0CAF9E0B20D
:1048400000F0C7F91088401EC0F30F2000F0C1F936
:104850001078401E5FFA80F000F0BBF9908900F0FC
:10486000C4F9384600F0B5F9E8B200F0B2F9508862
:10487000401EC0F30F2000F0ACF99078401EC0B28B
:10488000D2E71188091B491E8CB200F0AEF9002056
:1048900000F09FF9002000F09CF9200A00F099F93F
:1048A000E0B2D9E700F0A1F9304600F092F9508962
:1048B000401C80B200F099F9E0B200F08AF99089CA
:1048C00000F093F9384600F084F99089401C80B2DA
:1048D00000F08BF9A7E700004C0400202DE9F04F11
:1048E000064699461044401E1FFA80F8504C01EBD2
:1048F00009000D464FEA112BA3882146401E498925
:10490000A3F5C85C87B2BCF1630C26D194F806C04D
:10491000BCF1010F21D0238887B29B1A9B1B9EB24A
:10492000084600F062F9300A00F053F9F0B200F0E6
:1049300050F93244521EC2F30F2000F04AF9D0B2AF
:1049400000F047F9A08900F050F9584600F041F90D
:10495000E8B200F03EF9380A28E005EB0900401EF5
:10496000C0F3072AB018401EC0F30729320AA3F586
:10497000A04CBCF5A26C08461FD000F036F91046DA
:1049800000F027F9F0B200F024F9484600F021F9D0
:1049900008F0FF0000F01DF9A08900F026F9584644
:1049A00000F017F9E8B200F014F9504600F011F9E0
:1049B000F8B2BDE8F04F00F00CB900F016F910465F
:1049C00000F007F96089401C80B200F00EF9F0B2E7
:1049D00000F0FFF86089801C80B200F006F94846BC
:1049E00000F0F7F86089C01C80B200F0FEF808F013
:1049F000FF0000F0EEF8A08900F0F7F8584600F04C
:104A0000E8F8A089401C80B200F0EFF8E8B200F0AE
:104A1000E0F8A089801C80B200F0E7F8504600F072
:104A2000D8F8A089C01C80B200F0DFF8C0E7000011
:104A30004C0400202DE9FF4F1D460C468A465807BE
:104A400000D0012000EBD500690810FB01F0203AEE
:104A500000F0FF09D0B20026DFF898B0029044E0E1
:104A60000C2D11D0102D14D0182D40D102982249B0
:104A700000EBC00001EB80004FF00008875D3806B6
:104A80000CD51E4802880DE002981D4900EB40003D
:104A9000F0E71C49029801EB0010EDE70D9828B9EA
:104AA0001648428821460098FDF7BAF97806070EA5
:104AB000641CBBF80200A4B2A04218D9A4EB0A00FF
:104AC000A84209D100985446401C80B20090BBF81F
:104AD000001081420BD906E008F1010000F0FF0848
:104AE000B8F1080FCBD3761CF6B24E45B8D3BDE86B
:104AF000FF8F00004C040020A8E3020838000020CB
:104B000044D90208B8DD02082DE9FF4F81B0002624
:104B1000DDF838A01D46934681463446B0464FEA3C
:104B20005A0727E0281B401EC1B20A20FFF762FD8A
:104B3000BBFBF0F00A21B0FBF1F201FB120026B939
:104B4000691E8C4201DA48B101263030C2B207FB3F
:104B5000049080B25346CDF8008006E007FB049035
:104B600080B253462022CDF800800299FFF762FF01
:104B7000641CE4B2AC42D5D305B0BDE8F08F2DE99A
:104B8000F84F044600F0FF0910190D46DDE90AB69A
:104B90001FFA80F8581987B24FF0000A12E0444516
:104BA00003D305EB0B004C4685B2BD420FD25B46EA
:104BB00029462046CDF800A0FFF73CFF04EB5B0040
:104BC00084B2761C3278A2F120005E28E7D9BDE8D5
:104BD000F88F01B5BDF80000ADF80000BDF8000089
:104BE0004FF0D841A1F8800008BD01B5BDF8000024
:104BF000ADF80000BDF800004FF0D841A1F87E00EC
:104C000008BD000003484FF0D8410089A1F87E009C
:104C1000704700004C0400204FF0D84222F87E0F6D
:104C2000518070477CB50121202000F0C5FB012098
:104C30008DF8040000218DF8061003218DF8051071
:104C4000074D4FF4C0648DF807000094694628466C
:104C5000FCF774FD21462846FCF7D1FD7CBD000021
:104C600000140240FEE700002DE9F04100F072FB65
:104C7000254CE06818F0D6F9054624A119F01AF879
:104C80000022284661681DF0ECFE28461AF050FA12
:104C900020691AF099FB064620691AF095FB054633
:104CA00020691AF091FB0746304600F0F1F92846DA
:104CB00000F0AAFA3D4600236FF02702082138468B
:104CC00019F0BAFF4FF4AF72962128461DF056FD39
:104CD00000228C2128461DF051FE606918F0A2F9CF
:104CE00005460CA118F0E6FF0022284661681DF079
:104CF000B8FE28461AF01CFABDE8F04100224FF435
:104D0000FA71064820F040BC30030020506167650E
:104D10005F310000506167655F330000516A02082F
:104D20007047000030B50F22C47801780123FCB130
:104D3000144C246801F1E02104F4E064C4F5E0645B
:104D4000C4F30724C4F10405E2404478AC408578FC
:104D5000154025432A0181F80024007800F01F0146
:104D60008B404009800000F1E020C0F8003130BDE8
:104D700001F01F0083404809800000F1E020C0F8E6
:104D8000803130BD0CED00E0024908430249086063
:104D9000704700000000FA050CED00E0FEB50024AD
:104DA0008DF800400121062000F006FB0220019052
:104DB0008DF808408DF80A4003208DF80900012580
:104DC0008DF80B5001A91748FCF7B8FC6803019057
:104DD0008DF8085001A91448FCF7B0FCFBF766FEFB
:104DE000124EC6F8B442642006F52D7605F026FB77
:104DF0003560642005F022FB012000F011F901224A
:104E000069464FF4506000F019F89DF8001008A0B2
:104E1000FBF728FB9DF80000802801D00120FEBD93
:104E20000020FEBD00040240000802400000414294
:104E30004354502049443A25780D0A002DE9F041A9
:104E400015460E460446FBF7BDFEB220FBF796FE64
:104E5000FBF7F2FE200AFBF791FEFBF7EDFEE0B256
:104E6000FBF78CFEFBF7E8FEFBF7ACFEB320FBF78D
:104E700085FEFBF7E1FE00246F1E09E0BC4201D075
:104E8000012000E00020FBF74BFE3055641CE4B22B
:104E9000AC42F3D3BDE8F041FBF7B2BE2DE9F147D8
:104EA000564E00242DED048B4FF00A0981B0307866
:104EB000DFF84C81401CC0B2B0FBF9F209FB1201D3
:104EC0002746307009B10A2877D2012205A90020AF
:104ED000FFF7B4FF9DF81400C10672D000F01F0068
:104EE00040F0C000454688F8200001279FED458B23
:104EF0009FED469B95F8200007FA04F108424FD039
:104F000044480422694630F81400FFF797FF95F8EB
:104F100030009DF80210C0079DF8030000EB01204F
:104F200022D028F054F953EC182B28F09FF928F0E0
:104F300021F905EB440AAAF816009DF801009DF836
:104F4000001000EB012028F042F953EC192B28F057
:104F50008DF99FED311B53EC112B28F0BBFA28F093
:104F600009F9AAF80C001BE028F031F953EC182BD2
:104F700028F07CF928F0FEF805EB440AAAF80C00AA
:104F80009DF801009DF8001000EB012028F01FF9AA
:104F900053EC192B28F06AF928F0ECF8AAF816005F
:104FA000641CE4B2052CA5D30127A989002019B9F6
:104FB000E98A09B98DF8140030709DF81400C00614
:104FC00010D198F82000010602D520F0800007E0FB
:104FD0004FF6FF71A8F80C10A8F8161000F0E000CA
:104FE00088F820003078F02801D986F8009001B0C8
:104FF0003846BDEC048BBDE8F88700003E00002079
:10500000440000207B14AE47E17AD43FD881734638
:1050100094F6D23FD0F10208000000000000894061
:1050200008B500218DF8001010B180208DF8000027
:10503000012269464FF4506000F001F808BD2DE9E7
:10504000F04116460F4604460025FBF7BBFDB22093
:10505000FBF794FDFBF7F0FD200AFBF78FFDFBF754
:10506000EBFDE0B2FBF78AFDFBF7E6FD002408E06C
:10507000385DFBF783FDFBF7DFFD050003D1641C02
:10508000E4B2B442F4D3FBF7BBFD2846BDE8F0819F
:105090002DE9F843044600232822072119F0CCFD0E
:1050A0004FF4AF724FF4AA7120461DF067FB002247
:1050B0008C2120461DF062FC4FF4803200212046F6
:1050C0001DF01BF820461AF07FF9064620461AF01C
:1050D0007BF9054620461AF077F9804600231A46E8
:1050E0000221304619F0A8FD4FF496776422394624
:1050F00030461DF043FB0A2400230D22314628468A
:10510000009419F0A7FD6422394628461DF036FBAD
:1051100000230D2229464046009419F09BFD64228D
:10512000394640461DF02AFB304618F071FE2F4CE0
:10513000A06130461EF0D6F9E061304617F072FBF0
:105140002062284618F064FE606228461EF0CAF904
:10515000A062284617F066FBE062404618F058FE51
:10516000206340461EF0BEF96063404617F05AFBCC
:10517000A0631834304694E80E00183CFBF77CFE20
:105180002434284694E80E00243CFBF775FE3034A6
:10519000404694E80E00303CFBF76EFE00230822E8
:1051A0001349206A19F050FC002308221149E06AD3
:1051B00019F04AFC002308220F49A06B19F044FCA7
:1051C00000231D220D49E06919F03EFC00231D2239
:1051D0000B49A06A19F038FC606B01B00023BDE8F0
:1051E000F0431D22074919F02FBC000030030020B6
:1051F000CD0C0008690D0008010E0008910C000894
:10520000550D0008ED0D0008F8B5074600236FF0B6
:10521000E502082119F010FD4FF4AF7296213846CF
:105220001DF0ACFA00228C2138461DF0A7FB384651
:1052300017F0F8FE0446002239491DF012FC39A18E
:10524000204618F037FD142300220121204619F0D2
:10525000F3FC384617F0E6FE0446002230491DF004
:1052600000FC32A1204618F025FD19230022072159
:10527000204619F0E1FC384617F0D4FE2D4C0022F0
:105280002D49E0631DF0EDFB2C482DA10278E06B69
:1052900018F045FD6FF02705AE102B463246092168
:1052A000E06B19F0C9FC384617F0BCFE0022224919
:1052B00020641DF0D6FB234821A10278206C18F051
:1052C0002EFD2B4632460521206C19F0B5FC3846E0
:1052D00017F0A8FE064600221B491DF0C2FB1BA1C9
:1052E000304618F0E7FC04250095072314223046C9
:1052F000E16B19F0AFFC384617F094FE0646002229
:1053000011491DF0AEFB12A1304618F0D3FC0095F8
:10531000072314223046216C19F09CFCF8BD0000D4
:10532000C4030020E6B8A9E5BAA63A00E6B9BFE58D
:10533000BAA63A0030030020F80300200000002045
:105340002564000001000020900300200000000000
:105350002500000010B51EF091F820F0D7F8144C8D
:10536000002202231146A06020F09EF8E060032393
:1053700000220121A06820F097F82061012300227B
:105380000221A06820F090F8606100F0F7F8A068B2
:105390001DF00CFC01222169A0681DF076FB20693C
:1053A00016F086FCBDE81040024917F069B900000C
:1053B00030030020E8400F08044A0029116801D09A
:1053C000014300E081431160704700003038024023
:1053D000044A0029116801D0014300E081431160B3
:1053E0007047000038380240044A0029116801D093
:1053F000014300E0814311607047000040380240E3
:10540000044A0029116801D0014300E08143116082
:10541000704700004438024070B5204A1168204CA3
:1054200011F00C0104D06610042903D0082903D020
:1054300004601BE0066019E01849091F0B68C3F3FC
:1054400080550B6803F03F0315B1B6FBF3F301E0A1
:10545000B4FBF3F30C680968C4F388146343C1F325
:105460000141491C4900B3FBF1F1016011680F23B0
:1054700003EA11110B4B5C5C0168E1404160146868
:10548000072505EA94241C5D21FA04F4846012685F
:1054900005EA52329A5CD140C16070BD08380240C2
:1054A0000024F4008400002010B5064C014620467C
:1054B00001F064F88021204600F0C8FF0028F9D0F0
:1054C00010BD0000004800400CB5002027490190A5
:1054D00000900A6842F480320A604FF4A0430A68E0
:1054E00002F400320092019A521C0192009A12B901
:1054F000019A9A42F3D10A68920334D501200090B0
:105500001A484030026842F080520260184802682F
:1055100042F44042026015480830026802600268A6
:1055200042F400420260026842F4A0520260031F8B
:10553000104A1A600A6842F080720A600A68920192
:10554000FCD50D4A40F205711160016821F003019C
:105550000160016841F0020101600168C1F381014D
:105560000229FAD10CBD00900CBD000000380240A9
:105570000070004008544007003C024070B51DF028
:105580007DFF17F04FFD054611A118F093FB124C5B
:105590000022284661681DF064FA0A231A46012198
:1055A000284619F049FB1DF069FF17F03BFD054641
:1055B0000AA118F07FFB0022284661681DF051FA0D
:1055C0002846BDE870400A235A42032119F034BB33
:1055D000414D20383A33300030030020EF87AB20B4
:1055E000202038302520EF89810000004FF0E02195
:1055F0000428086903D020F004000861704740F0D7
:105600000400FAE710B527F087FA012803D0BDE8B7
:10561000104026F077BF10BD124810B5016841F464
:10562000700101601048016841F0010101600E4AFB
:1056300000210832116002680C4B1A400260031D01
:105640000B4A1A60026822F48022026006480C307D
:105650000160FFF739FF03494FF0006080390860AF
:1056600010BD000088ED00E000380240FFFFF6FEAC
:10567000103000242DE9F0438846814601218BB08B
:105680000802FFF7B1FE1F4F092211463846FCF70A
:10569000A6F87815022500908DF8045003208DF8A7
:1056A000050000248DF8064001268DF80760694644
:1056B0003846FCF743F8ADF80880ADF80A40ADF87D
:1056C0001040114CCDF80C9002A9204600F0D4F8FF
:1056D0006020ADF81400ADF81660ADF8205005A9B3
:1056E000204600F091F80821204600F0BDF8012185
:1056F000204600F05DF80121204600F066F80BB06E
:10570000BDE8F083001402400020004010B50F4CAB
:105710000121204600F063F8012811D10C498A6864
:10572000C868521C40F100008A60C8600A68501CBA
:105730000860142A04D90020086001201FF0AAFE86
:105740002046BDE81040012100F03CB800040040B4
:10575000280000207FB50C46054601210220FFF7F6
:1057600043FE0195ADF800400024104DADF8024015
:10577000ADF808406946284600F07EF8012211463F
:10578000284600F038F80121284600F01EF81D20B8
:105790008DF80C0001208DF80D008DF80E408DF86D
:1057A0000F0003A8FFF7BEFA7FBD00000004004011
:1057B0000029018802D041F0800101E021F0800140
:1057C00001807047C943018270470029018802D0D7
:1057D00041F0010101E021F0010101807047024622
:1057E0000020138A92890B4202EA010202D0002AA9
:1057F00000D001207047002A828901D00A4300E0CE
:105800008A4382817047000030B5028C22F0010289
:105810000284028C8388048B22F0020224F0730538
:105820000C882C438D8915434A882A430C4DA84285
:1058300002D00C4DA8420DD122F00805CA8923F4EC
:1058400040732A4322F004058A882A430D8A1D43A7
:105850004B8A2B438380048389684163028430BD73
:105860000000014000040140028B22F008020A43BC
:10587000028370474163704730B50288164B174C5E
:1058800098420DD0A0420BD0B0F1804F08D0144DFB
:10589000A84205D0134DA84202D0134DA84203D10F
:1058A00022F070054A882A43104DA84206D0104DB8
:1058B000A84203D022F440750A892A4302804A682C
:1058C000C2620A880285984201D0A04201D1897A39
:1058D00001860121818230BD0000014000040140A9
:1058E0000004004000080040000C00400010004090
:1058F000001400402DE9FF4F83B00E46DDE910A9EA
:105900004E4907464FF47840DDF8508008804CA09F
:105910001024CDE900404B4D9346A0216B882A8886
:105920002820FFF72CF948A0CDE900406B882A8891
:10593000A0217820FFF723F944A0CDE900406B882F
:105940002A88B4212820FFF71AF941A0CDE90040A8
:105950006B882A88B4217820FFF711F93DA0CDE9A2
:1059600000406B882A88C8212820FFF708F93AA050
:10597000CDE900406B882A88C8217820FFF7FFF81E
:1059800036A0CDE900406B882A88DC212820FFF76B
:10599000F6F833A0CDE900406B882A88DC21782016
:1059A000FFF7EDF82FA0CDE900406B882A88F021A1
:1059B0002820FFF7E4F804233A46A0214020009471
:1059C000FFF7A2F804233246A02190200094FFF7AD
:1059D0009BF804235A46B42140200094FFF794F822
:1059E00004230094B4219020069AFFF78DF8042335
:1059F0005246C82140200094FFF786F804234A4607
:105A0000C82190200094FFF77FF804230094DC2144
:105A10004020129AFFF778F804230094DC219020AC
:105A2000139AFFF771F803234246F0216020009497
:105A3000FFF76AF807B0BDE8F08F000038000020DB
:105A400078313A004C04002079313A0078323A003B
:105A500079323A0078333A0079333A0078343A00B0
:105A600079343A006661632069733A002DE9F04F9A
:105A7000DFF800B41F202DED0C8B89B04FF6FF77B7
:105A8000002425465E46ABF80000FB4807803846F8
:105A9000FCF79EF84FF47848A6F800803846FCF7EB
:105AA00097F8F648A246A6F800A001684FF0100942
:105AB000CDE9009128216423A0220846FFF75FF872
:105AC00014214246084600F0AFFAED4E86F820A0B9
:105AD0009FEDEC0A4FF0010886ED090A9FEDEA8B75
