:020000040800F2
:10000000A8C0012055020008714B0008C319000860
:10001000B54A00089F08000895630008000000002A
:100020000000000000000000000000009D0100082A
:10003000250F000800000000F101000855540008D9
:100040006F0200086F0200086F0200086F020008CC
:100050006F0200086F0200086F0200086F020008BC
:100060006F0200086F0200086F0200086F020008AC
:100070006F0200086F0200086F0200086F0200089C
:100080006F0200086F0200086F0200086F0200088C
:100090006F0200086F0200086F0200086F0200087C
:1000A0006F0200086F0200086F0200086F0200086C
:1000B0006F0200085D5500086F0200086F0200081B
:1000C0006F0200086F0200086F0200086F0200084C
:1000D0006F020008FD6100086F0200086F0200084F
:1000E0006F0200086F0200086F0200086F0200082C
:1000F0006F0200086F0200086F0200086F0200081C
:100100006F0200086F0200086F0200086F0200080B
:100110006F0200086F0200086F0200086F020008FB
:100120006F0200086F0200086F0200086F020008EB
:100130006F0200086F0200086F0200086F020008DB
:100140006F0200086F0200086F0200086F020008CB
:100150006F0200086F0200086F0200086F020008BB
:100160006F0200086F0200086F0200086F020008AB
:100170006F0200086F0200086F0200086F0200089B
:100180006F0200086F020008DFF80CD000F04AFB95
:100190000048004741600208A8C001202A4B1968A6
:1001A0000868B0E8F04F80F30988BFF36F8F4FF015
:1001B000000080F3118870470000000006480068C6
:1001C000006880F3088862B661B6BFF34F8FBFF353
:1001D0006F8F00DF00BF00BF08ED00E0DFF80C000C
:1001E000016841F470010160704700BF88ED00E0D4
:1001F000EFF30980BFF36F8F134B1A681EF0100FD7
:1002000008BF20ED108A20E9F04F106008B44FF0CD
:10021000500080F31188BFF34F8FBFF36F8F2BF027
:1002200095FF4FF0000080F3118808BC196808683A
:10023000B0E8F04F1EF0100F08BFB0EC108A80F34A
:100240000988BFF36F8F704734000020EFF30580FB
:10025000704700000648804706480047FEE7FEE773
:10026000FEE7FEE7FEE7FEE7FEE7FEE7FEE7FEE766
:1002700069540008890100082DE9F05F0546002057
:1002800092469B4688460646814640241BE0284607
:1002900041464746224600F0F4F953465A46C01AF2
:1002A000914110D311461846224600F0DBF92D1A71
:1002B00067EB01084F4622460120002100F0D2F9E9
:1002C00017EB00094E41201EA4F10104DFDC484673
:1002D00031462A464346BDE8F09F40EA01039B07AA
:1002E00003D009E008C9121F08C0042AFAD203E0AB
:1002F00011F8013B00F8013B521EF9D27047D2B20F
:1003000001E000F8012B491EFBD270470022F6E7FE
:1003100010B513460A4604461946FFF7F0FF20467B
:1003200010BD421C10F8011B0029FBD1801A704738
:1003300010B5002200E0521C835C8C5CA34201D10A
:10034000002BF8D1D8B2E1B2401A10BD034611F823
:10035000012B00F8012B002AF9D1184670472DE92E
:10036000FE4F804681EA0300C00F0C46009021F04A
:10037000004123F00045B8EB0200A94105D24046F8
:10038000214690461C460B46024623F0004010438F
:1003900047D0270DC7F30A00C3F30A510290401A51
:1003A000019040286BDAC3F3130040F4801B0098DF
:1003B000924620B10023D2EB030A63EB0B0B0198AA
:1003C0005946C0F14002504600F04CF906460D4631
:1003D00050465946019A00F064F910EB080061415B
:1003E000002487EA115284EAE7731A4340D0009A46
:1003F00062B3019A012A4FEA075215DC001B61EB38
:1004000002014FF0004202EA0752CDE90042001C0F
:1004100041F5801132462B4600F064F903B0BDE887
:10042000F08F40462146F9E7001B61EB0201001CFA
:1004300041F5801300185B412018A2F5001747EB27
:10044000030140EAD570B6196D4111E06D084FEA1D
:10045000360645EAC0754FEA0752001B61EB020100
:10046000001C41F5801149084FEA30000019514144
:1004700032462B4603B0BDE8F04F00F024B9009897
:10048000012240000023D0EB020263EBE0730098EE
:1004900021464FEAE074B8EB000061EB0401E9E7A4
:1004A00083F000435BE781F0004158E72DE9FE4F00
:1004B00081EA030404F0004421F0004100944FF06D
:1004C000000B23F0004350EA01045ED052EA03041B
:1004D0005BD0C3F30A54C1F30A552C44A4F2F3349D
:1004E0000194A0FB0254C1F3130141F48011C3F342
:1004F000130343F4801301FB024400FB034E840A00
:10050000970A44EA815447EA8357A4FB0768029597
:100510008D0A05FB07854FEA932C04FB0C54270535
:10052000029D4FEA065847EA1637B5EB08056EEB11
:10053000070C870E920E47EA811742EA8312A7FB47
:100540000201B6EB0B0164EB00042B0D43EA0C3304
:100550005E1844EB1C50DA465146E7FB0201C5F336
:1005600013044FEA0B3343EA14534FEA0432019C5D
:1005700043EA0603A4F10C040294009CCDE900B404
:1005800000F0B0F803B0BDE8F08F00200146F9E7B5
:100590000EB540F2334102910021CDE900110A4627
:1005A0000B4600F09FF803B000BDC1F30A5210B52E
:1005B000C1F3130140F2FF3341F480119A4201DA92
:1005C000002010BD40F233439A42A2F2334203DCD2
:1005D000524200F056F810BD904010BD00F00042AD
:1005E00030F000400AD0C10D01F56071C0F3160073
:1005F00042EA0151C20840071143704700200146FA
:100600007047000030B5041E71F1000404DB4FF0A8
:100610000044404264EB0101141E73F1000405DB49
:100620001C464FF00043524263EB04038B4208BF69
:10063000824230BD30B5041E71F1000404DB4FF07E
:100640000044404264EB0101141E73F1000405DB19
:100650001C464FF00043524263EB0403994208BF2B
:10066000904230BD202A04DB203A00FA02F100203B
:1006700070479140C2F1200320FA03F319439040E0
:100680007047202A04DB203A21FA02F0002170474B
:1006900021FA02F3D040C2F12002914008431946EA
:1006A0007047202A06DBCB17203A41FA02F043EAD2
:1006B000E07306E041FA02F3D040C2F1200291401B
:1006C00008431946704710B5141E73F1000408DA88
:1006D000401C41F1000192185B411A4301D120F006
:1006E000010010BD2DE9F04D92469B4611B1B1FAC3
:1006F00081F202E0B0FA80F220329046FFF7B2FFBA
:1007000004460F4640EA0A0041EA0B0153465A46A6
:10071000084313D0114653EA010019D0C8F1400232
:100720005046FFF7AEFF05460E4650465946424634
:10073000FFF798FF084305D0012004E02046394622
:10074000BDE8F08D0020054346EAE0762C433743B0
:100750000A986305E40AA0EB08000022FD0A44EAB7
:1007600047540A3002D500200146E9E70105101977
:100770006941DDE9084500196941BDE8F04DA2E78E
:100780002DE9F04D00231A461B1A8A4103DB002095
:100790000146BDE8F08DC1F30A52C1F3130141F4E3
:1007A00080154FF0000BD10702D100186D41521E89
:1007B0000027044640F2FF11384601EB620A3E462C
:1007C0008046024600204FF48011FFF75AFFC219FD
:1007D0007141BB1846EB0100B4EB030C75EB000C48
:1007E00004D3E41A65EB000517460E46241908F1F8
:1007F00001006D4180463428E3DDF91946EB06001F
:10080000091BA84103D24FF0FF32134601E000223A
:1008100013461BEB070046EB0A51BDE8F04DFFF70E
:1008200052BF0000064C074D06E0E06840F00103AF
:1008300094E8070098471034AC42F6D3FFF7A8FCC1
:10084000DC810F08FC810F0870B58C1810F8015B73
:1008500015F0070301D110F8013B2A1106D110F859
:10086000012B03E010F8016B01F8016B5B1EF9D15D
:100870002B0705D40023521E0DD401F8013BFAE7E3
:1008800010F8013BCB1A921C03E013F8015B01F84E
:10089000015B521EF9D5A142D8D3002070BDFEE7FE
:1008A0002DE9F0410D4D0024C5F8AC42022005F5BC
:1008B0002B7509F06DFE0A4F0126C7F880620220F1
:1008C00007F5207709F064FE3C60022009F060FE25
:1008D0002E60BDE8F041022009F05ABE008042427D
:1008E000008040421CB50121222004F08DFC01242F
:1008F0008DF804408DF8064000948DF80740694655
:10090000054800F037FEE00200908DF8044069468B
:10091000024800F02FFE1CBD0004024000140240FB
:1009200070B50B480125C0F8AC52022009F030FE2A
:10093000084CC4F88052022004F5207409F028FE07
:1009400000202060BDE87040022009F021BE0000B8
:1009500000804242008040422DE9F0470024DFF849
:100960004C80134E824625460127A1466006040EA0
:10097000C6F88072022009F00BFED8F82C0208B1EC
:10098000641CE4B2C6F88092022009F001FE6D1CDE
:10099000EDB2082DEAD3BAF1000F04D0FFF780FFC3
:1009A0002046BDE8F087FFF7BBFFF9E70080424231
:1009B000008040422DE9F04700240E4F0E4E0546C0
:1009C000A1464FF00108E809C7F8AC02022009F07F
:1009D000DFFDC6F88082022009F0DAFDC6F88092B9
:1009E0006806641C050EE4B2082CECD3C7F8AC8290
:1009F000BDE8F087008042420080404270B50C4C58
:100A00000120C4F8AC020B4DC5F88002022004F5A9
:100A10002B7405F5207509F0BBFD00262660022029
:100A200009F0B6FD2E60BDE87040022009F0B0BDAF
:100A3000008042420080404270B50B4C0020C4F858
:100A4000AC02022004F52B7409F0A2FD0748012531
:100A5000C0F88052022009F09BFD2560BDE870407F
:100A6000022009F095BD0000008042420080404213
:100A70002DE9F0410024124E01272546C6F8AC723C
:100A8000022009F085FD38460E4FC7F8800207E0C6
:100A9000641CE4B2FA2C03D9FFF7CEFF012506E06F
:100AA000022009F075FDD6F82C020028F0D10020B4
:100AB000C7F88002022009F06BFD2846BDE8F081EE
:100AC000008042420080404270B505461AF0DFFBCC
:100AD000044628461AF096FB1D280ED1204615F034
:100AE0009DF9064CC1B26064A0691DF051FB616CB8
:100AF000BDE87040024804F0E5BD70BD9C010020D7
:100B00000020004070B5194C217881F0010121705E
:100B10001AF07CFB054616A005F03EFC20781A4E24
:100B200068B14FF47F0016F0ABFC01460022284666
:100B300021F0E7FFA0691DF028FBFF210BE000205A
:100B400016F09EFC01460022284621F0DAFFA0693B
:100B50001DF018FB0021304604F0B4FD2846BDE826
:100B600070400022C82121F0D8BF00009C01002065
:100B700072756E2063616C6C6261636B31202066FC
:100B8000756E0D0A000000000020004010B50446FC
:100B90001AF07DFB2046BDE810401AF033BB000080
:100BA00070B5184C617881F0010161701AF02EFB6C
:100BB000054615A005F0F0FB6078194E68B14FF4BA
:100BC0007F0016F05DFC01460022284621F099FFC7
:100BD000606A1DF0DAFA00200BE0002016F050FCED
:100BE00001460022284621F08CFF606A1DF0CAFAF7
:100BF0000120C6F8A8022846BDE870400022C8219E
:100C000021F08BBF9C01002072756E2063616C6CBB
:100C10006261636B32202066756E0D0A0000000071
:100C20000080424210B504461AF031FB2046BDE870
:100C300010401AF0E7BA000070B5164CA17881F0A8
:100C40000101A1701AF0E2FA054613A005F0A4FB19
:100C5000A07860B14FF47F0016F012FC014600222C
:100C6000284621F04EFF206B1DF08FFA0AE000208D
:100C700016F006FC01460022284621F042FF206BB8
:100C80001DF080FA2846BDE870400022C82121F0FE
:100C900044BF00009C01002072756E2063616C6C83
:100CA0006261636B33202066756E0D0A00000000E0
:100CB000F8B51E4614460F46214816F0E1FB0146E2
:100CC00038461DF075FA00231A46072138461EF0F3
:100CD00043F838461DF056FA0A229621204621F0A4
:100CE000DDFD0025322307223946204600951EF0FF
:100CF00041F82046FF22294615F09EF80022114BAC
:100D00001146304600951BF07DFE202211463046EC
:100D100021F0C4FD00231A46082130461EF01CF8BD
:100D20000022C821304621F0F8FE002016F0A8FB72
:100D300001463046BDE8F840002221F0E2BE000046
:100D40005EDCFE0068E50E08034A00219160D16078
:100D50005321312004F026BC9000002070B50024FF
:100D600000F024F8104D04E0641CE4B2012009F006
:100D70000FFCD5F8240210B1642CF5D30DE0642CDF
:100D80000BD2002404E0641CE4B2012009F000FC52
:100D9000D5F8240218B1642C04D3012070BD642C52
:100DA000F1D3FAE7002070BD000043421CB50020DB
:100DB0008DF804004FF40070009001208DF80700BA
:100DC0006946024800F0D6FB1CBD00000018024036
:100DD0001CB50120410200918DF8040003218DF81B
:100DE000051000218DF806108DF8070069460248AD
:100DF00000F0C0FB1CBD0000001802407CB50121C2
:100E0000402004F001FA01208DF8040003218DF840
:100E1000051000218DF806104402084D8DF80700DA
:100E200000946946284600F0A5FB2146284600F0BC
:100E300002FC00F061F8FFF791FF7CBD0018024052
:100E400070B50024104D04E0641CE4B2012009F0E8
:100E50009FFBD5F8240208B1642CF5D3002404E0EC
:100E6000641CE4B2012009F093FBD5F8240208B910
:100E7000642CF5D3282009F08BFBD5F82402002838
:100E800000D0012070BD00000000434270B500207A
:100E900004464006050EFFF7D3FF641C2843E4B266
:100EA000082CF6D370BD2DE9FC410D46064600F036
:100EB00023F8FFF753FF10B10120BDE8FC810024A7
:100EC0006F46FFF7E3FF3855641CE4B2052CF8D3F6
:100ED0009DF800109DF801009DF803300A189DF858
:100EE000020003441A449DF804309A4201D129704B
:100EF00030700020E1E7000010B5FFF769FF084CF3
:100F00000020C4F8A402142004F5297409F024FB7D
:100F100001202060BDE810401E2009F039BB000010
:100F200000004342704700008000A0F1C04000294B
:100F3000016802D041F0010101E0024A1140016064
:100F400070470000FEFF0F0010B5D0E901121143F9
:100F5000D0E903231A4311434269114382691143C3
:100F6000C2691143026A1143426A1143826A114302
:100F7000C26A1143026B114302689200A2F1C0429F
:100F800011608168082907D101688900A1F1C04179
:100F90000A6842F040020A60416BD1E9002342EA4C
:100FA00003128B688C891B0243EA04431A430B8AA1
:100FB00042EA03520B7D896942EA03620A430168EF
:100FC0008900A1F1C0414A60C16AB1F5804F08D0E3
:100FD00000686FF070418000A0F1C040C0F80411BB
:100FE00010BD816BD1E9002342EA03128B680C8AA1
:100FF0001B0243EA04531A430B7D896942EA0362E8
:1010000000680A438000A0F1C040C0F8042110BD70
:101010002DE9F04798B001217A2004F0F5F801217C
:10102000084604F0FDF801258DF8045000244FF423
:1010300000408DF80640022600908DF805608DF87E
:1010400007506946994800F095FA8DF804604FF60C
:1010500033708DF806400327DFF854A200908DF816
:1010600005708DF807506946504600F083FA8DF8F8
:1010700004604FF683708DF80640DFF838920090D8
:101080008DF805708DF807506946484600F072FAF1
:101090008DF804604FF23F008DF80640DFF81882AB
:1010A00000908DF805708DF807506946404600F0B5
:1010B00061FA8DF804608DF806408DF805708DF8A2
:1010C000075040F23F407D4D00906946284600F0B1
:1010D00051FA0C220021504600F09DFA0C22012109
:1010E000504600F098FA0C220421504600F093FA82
:1010F0000C220521504600F08EFA0C2208215046A1
:1011000000F089FA0C220921504600F084FA0C22E2
:101110000A21504600F07FFA0C220B21504600F0C5
:101120007AFA0C221146504600F075FA0C220D2175
:10113000504600F070FA0C220E21504600F06BFA77
:101140000C220F21504600F066FA0C22002148467E
:1011500000F061FA0C220121484600F05CFA0C22F2
:101160000721484600F057FA0C220821484600F0B3
:1011700052FA0C220921484600F04DFA0C220A21AD
:10118000484600F048FA0C220B21484600F043FA8A
:101190000C221146484600F03EFA0C220D2148462A
:1011A00000F039FA0C220E21484600F034FA0C22E5
:1011B0000F21484600F02FFA0C220021404600F093
:1011C0002AFA0C220121404600F025FA0C220221C5
:1011D000404600F020FA0C220321404600F01BFAA2
:1011E0000C220421404600F016FA0C22052140464C
:1011F00000F011FA0C221146404600F00CFA0C22C5
:101200000D21404600F007FA0C220E21404600F066
:1012100002FA0C220F21404600F0FDF90C220021B9
:10122000284600F0F8F90C220121284600F0F3F9D5
:101230000C220221284600F0EEF90C220321284658
:1012400000F0E9F90C220421284600F0E4F90C2210
:101250000521284600F0DFF90C220A21284600F07B
:10126000DAF90820CDE9124011941694042017945D
:10127000CDE9020414941020CDE90440159406949D
:101280000002CDE90A4011A80994CDE90E40089466
:10129000079410900C940D9402A8FFF755FE0121BD
:1012A0000420FFF741FE18B0BDE8F08700040240BB
:1012B000000C0240001002400014024000180240DE
:1012C000FEB50121062003F09FFF022000240190BB
:1012D0008DF808408DF80A4003208DF8090001259B
:1012E0008DF80B5001A9254800F044F968030190DE
:1012F0008DF8085001A9224800F03CF9FFF7F2FAF6
:10130000204EC6F8B442142006F52D7609F024F9D3
:101310003560322009F020F98DF80040012269463D
:10132000002000F003F901226946A42000F0FEF835
:1013300016208DF8000001226946802000F0F6F8A2
:101340000C208DF8000001226946882000F0EEF89C
:1013500002226946A12000F01DF89DF80000302807
:1013600003D19DF80100032801D00120FEBD43F206
:10137000030105A005F010F80020FEBD00040240A6
:1013800000080240000041424354502049443A259D
:10139000780D0A002DE9F04115460E460446FFF788
:1013A0002DFB7020FFF706FBFFF762FBE0B2FFF7B3
:1013B00001FBFFF75DFBFFF721FB7120FFF7FAFA56
:1013C000FFF756FB00246F1E09E0BC4201D001204C
:1013D00000E00020FFF7C0FA3055641CE4B2AC42D4
:1013E000F3D3BDE8F041FFF727BB00002DE9F1473B
:1013F0004B4E00244FF00A0A307881B0401CC0B236
:10140000B0FBFAF20AFB1201DFF81881A146307036
:1014100009B10A2867D2012201A90220FFF7BAFF09
:101420009DF8040001075ED000F00F0106295AD292
:10143000FF208840C04340F0C00088F820004546A7
:10144000042009F089F84FF00109002795F82010D1
:1014500009FA04F0014239D033480422694630F8D1
:101460001400FFF797FF95F830009DF80010C007B3
:101470009DF8010001F00F010ED000EB012105EBFA
:101480004400C1829DF802209DF8031002F00F0273
:1014900001EB022181810FE000EB0120C0F5F0712A
:1014A00005EB440081819DF802209DF8031002F0B5
:1014B0000F0201EB0221C1829DF800000821B1EB6F
:1014C000101F03D005EB4400C7828781641CE4B27F
:1014D000052CBBD3A8894FF0010918B9E88A08B9CF
:1014E0008DF8047037709DF80400C00610D198F88C
:1014F0002000010602D520F0800007E04FF6FF71C2
:10150000A8F80C10A8F8161000F0E00088F82000E9
:101510003078F02801D986F800A04846BDE8FC875D
:10152000A0000020A800002078E802082DE9F04182
:1015300016460F4604460025FFF760FA7020FFF7B5
:1015400039FAFFF795FAE0B2FFF734FAFFF790FAAD
:10155000002408E0385DFFF72DFAFFF789FA05004F
:1015600003D1641CE4B2B442F4D3FFF765FA284611
:10157000BDE8F081F0B50023012403270D6804FACB
:1015800003F21540954242D1D0F800C05E0007FA40
:1015900006F52CEA050CC0F800C091F804C0D0F89C
:1015A00000E00CFA06FC4CEA0E0CC0F800C091F802
:1015B00004C0BCF1010F02D0BCF1020F1FD1D0F862
:1015C00008C02CEA050CC0F808C091F805C0D0F896
:1015D00008E00CFA06FC4CEA0E0CC0F808C0D0F883
:1015E00004C02CEA020CC0F804C0426891F806C09E
:1015F0000CFA03FC1FFA8CFC42EA0C024260C2683F
:10160000AA43C260CA79C568B2402A43C2605B1C63
:10161000102BB3D3F0BD4B07DB0E9A40C90810B5B1
:1016200000EB8100016A0F249C40A1430162016A22
:101630001143016210BD0183704700002DE9FF4195
:101640000121062003F0E0FD00248DF804408DF810
:10165000064003208DF80500DFF8C480022601252E
:1016600000968DF8075069464046FFF783FF6803F0
:1016700000908DF8045069462A48FFF77BFFFFF77A
:1016800031F9294FC7F8B4420A2007F52D7708F041
:1016900063FF3D600A2008F05FFF8DF8045000965C
:1016A0008DF8074069464046FFF764FF642008F064
:1016B00053FF042202A948F2401000F04BF88DF8C5
:1016C0000C4002A919A004F067FE1BA102A8FEF7B6
:1016D0002FFE08BB48F240058DF80860012202A9E0
:1016E000284600F045F9012202A9E81D00F032F871
:1016F0009DF80810602905D211A004F04DFE0120CC
:1017000000F00EF90A2008F027FF8DF808400122AA
:1017100002A9284600F02CF904B00020BDE8F081B1
:10172000000402400008024000004142435450209F
:1017300049443A25730D0A0039313437000000005E
:1017400044656661756C74205665723A25640D0AAD
:10175000000000002DE9F04115460E460446FFF753
:101760004DF92820FFF726F9FFF782F9200AFFF745
:1017700021F9FFF77DF9E0B2FFF71CF9FFF778F9DF
:10178000FFF73CF92920FFF715F9FFF771F900245D
:101790006F1E09E0BC4201D0012000E00020FFF7ED
:1017A000DBF83055641CE4B2AC42F3D3BDE8F04141
:1017B000FFF742B92DE9F147554E00244FF00A0AD0
:1017C000307885B0401CC0B2B0FBFAF20AFB1201BF
:1017D000504DA046307009B10A286ED248F24E1919
:1017E000012205A94846FFF7B5FF00278DF80070D4
:1017F00001226946484600F0BBF89DF81400010735
:101800005BD000F00F01062957D2FF2088408DF8E9
:101810000000C04395F8209040F0C00085F82000FB
:10182000A889A882E88AE8834FF0010895F820107B
:1018300008FA04F0014225D03748042201A930F803
:101840001400FFF787FF95F830009DF80510C007DA
:101850009DF8040000EB012105EB44000AD0C18291
:101860009DF806109DF8072001EB0221C1F5487193
:10187000818107E081819DF806109DF8072001EB2A
:101880000221C182641CE4B2052CCFD32349AA896A
:101890004FF001080B8828469A4203D8C28A49882B
:1018A0008A4209D99DF8141001F00F0101290BD9C2
:1018B000C1898181018BE98237709DF8140000F0A5
:1018C0008F0080280AD01AE0818A8181C18BC18271
:1018D00080218DF8141085F82090EEE795F820000F
:1018E000010603D520F0800085F820004FF6FF7038
:1018F00025F80C0F6881287D00F0E000287530780D
:10190000F02801D986F800A006B04046BDE8F0876F
:10191000A1000020A80000203AE902089457002006
:1019200008B500218DF800108DF801000F4800BFA8
:10193000435C9DF80020491C1A44C9B28DF8002070
:10194000B829F5D3D0B2C043401C8DF80000B822AE
:10195000064948F2470000F00BF80222694648F2B7
:10196000FF0000F005F8002008BD000082E8020832
:101970002DE9F04116460F4604460025FFF73EF8D4
:101980002820FFF717F8FFF773F8200AFFF712F87F
:10199000FFF76EF8E0B2FFF70DF8FFF769F80024E3
:1019A00008E0385DFFF706F8FFF762F8050003D19D
:1019B000641CE4B2B442F4D3FFF73EF82846BDE815
:1019C000F081FEE71CB50121112003F01DFC1C2055
:1019D000009000208DF8040003208DF805000124FC
:1019E0008DF8074069460648FFF7C4FD02208DF8D0
:1019F0000700009469460348FFF7BCFD1CBD0000CA
:101A0000001002400000024070B50A49064600245A
:101A100008884D8821464543204602F00DFE03F01C
:101A200019F84FF0D84002E0A0F88060641CAC4286
:101A3000FAD370BD945700202DE9F04F2B492C2686
:101A40000A46887192884FF4305A4FF4285B4FF45D
:101A5000487541F6631E2B274FF02A0C4FF0F00813
:101A600045F210594FF4A0744FF4F073B8B10C80E4
:101A7000A1F802804A4532D1A1F808A0A1F80AB025
:101A8000380288810D804B80A2F5A640103801D124
:101A90000B804C80BDE8F04F002002F00DBDA1F896
:101AA00000804C804A4507D1A1F808A0A1F80AB0EF
:101AB0004FF42C50888105E072450E8105D14F818D
:101AC000A1F80CC00B804D8002E0A1F80AC08F8104
:101AD000A2F5A6401038DDD10C804B80DAE70E81EC
:101AE000A1F80AC072458F81CCD0CDE79457002071
:101AF0002DE9FE4F161ACDE900104FF000085D1ACF
:101B000047464FF0FF30002E02DD4FF0010102E0AA
:101B100003D14FF000018B4602E08346C6F1000678
:101B2000002D02DD4FF0010002E003D14FF0000074
:101B3000824602E08246C5F10005AE4201DD344630
:101B400000E02C46601C4FF00009029018E000985D
:101B500081B2019880B200F019F8B0442F44A0453A
:101B600004DD0198A8EB040858440190A74203DD66
:101B700000983F1B5044009009F101001FFA80F9C2
:101B800002998945E3DDBDE8FE8F000000B502F053
:101B900053FD02F05FFF03484FF0D8410088A1F8E1
:101BA000800000BD8C0000202DE9FC4F8046002500
:101BB000144603200F46A0EB440649E0381B81B2CF
:101BC00008EB050A01901FFA8AF0FFF7DFFF781B88
:101BD00081B208EB040900901FFA89F0FFF7D6FFE5
:101BE00007EB050B1FFA8BF11FFA89F0FFF7CEFF09
:101BF00007EB04091FFA89F11FFA8AF0FFF7C6FF05
:101C0000A8EB050A1FFA89F11FFA8AF0FFF7BEFF59
:101C1000A8EB04091FFA8BF11FFA89F0FFF7B6FF52
:101C2000019881B21FFA8AF0FFF7B0FF009881B2E5
:101C30001FFA89F0FFF7AAFF6D1C002E03DA06EBEE
:101C40008506B61D04E0281B06EB8006641E0A36D6
:101C5000A542B3DDBDE8FC8F2DE9F0419046314A45
:101C60000D460446060A918810462F0A4089A1F5C0
:101C7000AA43103B0FD0A1F5C853633B24D002F018
:101C8000DCFE304602F0CDFEE0B202F0CAFE9089E2
:101C900002F0D3FE36E002F0D0FE304602F0C1FE84
:101CA0005089401C80B202F0C8FEE0B202F0B9FEDA
:101CB000908902F0C2FE384602F0B3FE9089401CC3
:101CC00080B202F0BAFE20E0917919B91188091B9F
:101CD000491E8CB202F0B1FE260A304602F0A1FE87
:101CE000E0B202F09EFE304602F09BFEE0B202F04F
:101CF00098FE908902F0A1FE384602F092FEE8B20A
:101D000002F08FFE384602F08CFEE8B202F089FE47
:101D10004FF0D840118920F87E1FA0F80280BDE85E
:101D2000F0810000945700202DE9F04FA1B000246D
:101D300001217A20119403F067FA0121084603F08B
:101D40006FFA01258DF804504FF400408DF80640DD
:101D5000022600908DF805608DF807506946FE4810
:101D6000FFF708FC8DF804604CF233708DF80640E4
:101D70000327DFF8E88300908DF805708DF8075091
:101D800069464046FFF7F6FB8DF804604FF6807019
:101D90008DF80640DFF8C89300908DF805708DF837
:101DA000075069464846FFF7E5FB8DF804602803B5
:101DB0008DF8064000908DF805708DF80750694643
:101DC000E848FFF7D7FB8DF8046028038DF806403C
:101DD00000908DF805708DF807506946E248FFF7CE
:101DE000C9FB0C2200214046FFF715FC0C22012103
:101DF0004046FFF710FC0C2204214046FFF70BFC85
:101E00000C2205214046FFF706FC0C220821404623
:101E1000FFF701FC0C2209214046FFF7FCFB0C22D6
:101E20000A214046FFF7F7FB0C220E214046FFF740
:101E3000F2FB0C220F214046FFF7EDFB0C2207219D
:101E40004846FFF7E8FB0C2208214846FFF7E3FB72
:101E50000C2209214846FFF7DEFB0C220A214846E6
:101E6000FFF7D9FB0C220B214846FFF7D4FB0C22CD
:101E700011464846FFF7CFFB0C220D214846FFF7DD
:101E8000CAFB0C220E214846FFF7C5FB0C220F218E
:101E90004846FFF7C0FB0C221146B248FFF7BBFBD8
:101EA0000C221146B048FFF7B6FB0F20CDE91A040B
:101EB0003C20CDE91C041E941F9409202094CDE9F8
:101EC00013040820CDE9150417940620CDE9020477
:101ED000189419941020CDE9044006940002CDE92D
:101EE0000A40089407948000CDE90C4009941AA890
:101EF000CDE90E4013A8109002A8FFF725F80121A4
:101F00000620FFF711F8322008F026FBD32002F05C
:101F100094FD02F09FFA954CA08002F09BFA2146B6
:101F2000888002F097FA4FF6FF7101EA00202146FF
:101F3000888002F08FFA214647F28976898845F237
:101F400010370843214645F210558880A0F513410B
:101F500041F663184FF4704A4FF2010B413973D0C8
:101F6000042002F06AFD02F075FAA08002F072FA15
:101F7000A08002F06FFA4FF6FF7202EA0020A08004
:101F800002F068FAA1880843A0F50541A080523903
:101F90007ED0B04258D0D42002F04FFD02F05AFA61
:101FA000A08002F057FAA08002F054FA02EA002062
:101FB0009146A08002F04EFAA1880843A080B84262
:101FC00042D05521504602F04FFDAA21584602F05A
:101FD0004BFD52214FF2020002F046FD08214FF264
:101FE000030002F041FD01214FF2040002F03CFD2C
:101FF0004FF4454002F021FD02F02CFA09EA0020DE
:10200000A0804A464CF2015002F017FD02F022FA7D
:10201000A1880843A080B0F5004F7CD0A84213D01F
:10202000A12002F00AFD02F015FAA08002F012FAD7
:1020300002EA0020A08002F00DFAA1880843A0F572
:10204000AE41A080613967D0A088A0F51341413925
:1020500005D0B84203D0A84201D040451BD14FF073
:102060002040D0F81C1121F00F01C0F81C11D0F84D
:102070001C1121F47061C0F81C11D0F81C1141F042
:102080000301C0F81C11D0F81C1141F4007100E0EC
:10209000F8E0C0F81C11A18835A004F07DF9A088F3
:1020A000A0F5134141396BD0B0426AD1112002F042
:1020B000C4FC782008F050FA362002F0BEFC002064
:1020C00002F0AFFC3A2002F0B8FC052002F0A9FCB7
:1020D000B22002F0B2FC0C2002F0A3FC0C2002F0B3
:1020E000A0FC002002F09DFC332002F09AFC33207B
:1020F00002F097FCB72002F0A0FC352002F091FC22
:10210000BB2002F09AFC322002F08BFCC02002F0CF
:1021100094FC0C2001E0BAE0B6E002F082FCC220A0
:1021200002F08BFC012002F07CFCC32002F085FC55
:10213000102002F076FCC42002F07FFC202002F088
:1021400070FCC62002F079FC0F2002F06AFCD0205F
:1021500002F073FCA42015E000040240000C0240D1
:102160000010024000140240001802409457002062
:10217000204C43442049443A25780D0A00000000D1
:1021800087E098E102F04DFCA12002F04AFCE0203B
:1021900002F053FCD02002F044FC002002F041FC8D
:1021A000022002F03EFC072002F03BFC0A2002F075
:1021B00038FC282002F035FC322002F032FC4420AA
:1021C00002F02FFC422002F02CFC062002F029FC39
:1021D0000E2002F026FC122002F023FC142002F054
:1021E00020FC172002F01DFCE12002F026FCD0208C
:1021F00002F017FC002002F014FC022002F011FC97
:10220000072002F00EFC0A2002F00BFC282002F04E
:1022100008FC312002F005FC542002F002FC4720AB
:1022200002F0FFFB0E2002F0FCFB1C2002F0F9FB89
:10223000172002F0F6FB1B2002F0F3FB1E2002F039
:10224000F0FB2A2002F0F9FB002002F0EAFB00205C
:1022500002F0E7FB002002F0E4FBEF2002F0E1FBDC
:102260002B2002F0EAFB002002F0DBFB002002F052
:10227000D8FB012002F0D5FB3F2002F0D2FB292041
:1022800002F013B8A68006E7A4F80480E7E6A5806C
:10229000E5E6CF2002F0D1FB002002F0C2FBC12016
:1022A00002F0BFFB302002F0BCFBED2002F0C5FBCA
:1022B000642002F0B6FB032002F0B3FB122002F010
:1022C000B0FB812002F0ADFBE82002F0B6FB8520D8
:1022D00002F0A7FB102002F0A4FB7A2002F0A1FB81
:1022E000CB2002F0AAFB392002F09BFB2C2002F04D
:1022F00098FB002002F095FB342002F092FB0220B4
:1023000002F08FFBF72002F098FB202002F089FBFF
:10231000EA2002F092FB002002F083FB002002F092
:1023200080FBC02002F089FB1B2002F07AFBC12059
:1023300002F083FB012002F074FBC52002F07DFB5C
:10234000302002F06EFB302002F06BFBC72002F061
:1023500074FBB72002F065FB362002F06EFB4820CC
:1023600002F05FFB3A2002F068FB552002F059FBB7
:10237000B12002F062FB002002F053FB1A2002F0B1
:1023800050FBB62002F059FB0A2002F04AFBA220C3
:1023900002F047FBF22002F050FB002002F041FB6C
:1023A000262002F04AFB012002F03BFBE02002F075
:1023B00044FB0F2002F035FB2A2002F032FB2820DC
:1023C00002F02FFB082002F02CFB0E2002F029FB6C
:1023D000082002F026FB542002F023FBA92002F083
:1023E00020FB432002F01DFB0A2002F01AFB0F2005
:1023F00002F017FB002002F014FB002002F011FB9A
:10240000002002F00EFB002002F00BFBE12002F0A6
:1024100014FB002002F005FB152002F002FB172040
:1024200002F0FFFA072002F0FCFA112002F0F9FA9C
:10243000062002F0F6FA2B2002F0F3FA562002F002
:10244000F0FA3C2002F0EDFA052002F0EAFA102042
:1024500002F0E7FA0F2002F0E4FA3F2002F0E1FA7E
:102460003F2002F0DEFA0F2002F0DBFA2B2002F010
:10247000E4FA002002F0D5FA002002F0D2FA01209E
:1024800002F0CFFA3F2002F0CCFA2A2002F0D5FA6F
:10249000002002F0C6FA002002F0C3FA002002F089
:1024A000C0FAEF2002F0BDFA112002F0C6FA78203F
:1024B00008F052F8E3E6B8427ED1ED2002F0BDFA12
:1024C000012002F0AEFAFE2002F0ABFAEE2002F09C
:1024D000B4FADE2002F0A5FA212002F0A2FAF120DF
:1024E00002F0ABFA012002F09CFADF2002F0A5FA1C
:1024F000102002F096FAC42002F09FFA8F2002F01A
:1025000090FAC62002F099FA002002F08AFAE2203E
:1025100002F087FAE22002F084FAE22002F081FA67
:10252000BF2002F08AFAAA2002F07BFAB02002F063
:1025300084FA0D2002F075FA002002F072FA0D20E4
:1025400002F06FFA002002F06CFA112002F069FA32
:10255000002002F066FA192002F063FA002002F06F
:1025600060FA212002F05DFA002002F05AFA2D20D4
:1025700002F057FA002002F054FA3D2002F051FA1E
:10258000002002F04EFA5D2002F04BFA002002F02B
:1025900048FA5D2002F045FA002002F042FAB1202C
:1025A00002F04BFA802002F03CFA002002F039FAE7
:1025B0008B2002F036FA00E0FDE3002002F031FA51
:1025C000962002F02EFA002002F02BFAB22002F040
:1025D00034FA002002F025FA002002F022FA02204C
:1025E00002F01FFA002002F01CFA032002F019FA90
:1025F000002002F016FAB32002F01FFA002002F0C9
:1026000010FA002002F00DFA002002F00AFA002071
:1026100002F007FA002002F004FA002002F001FAAA
:10262000002002F0FEF9002002F0FBF9002002F089
:10263000F8F9002002F0F5F9002002F0F2F900208C
:1026400002F0EFF9002002F0ECF9002002F0E9F9C5
:10265000002002F0E6F9002002F0E3F9002002F089
:10266000E0F9002002F0DDF9002002F0DAF90020A4
:1026700002F0D7F9002002F0D4F9002002F0D1F9DD
:10268000002002F0CEF9002002F0CBF9B42002F0D5
:10269000D4F98B2002F0C5F9002002F0C2F996208F
:1026A00002F0BFF9002002F0BCF9A12002F0B9F954
:1026B000002002F0B6F9B52002F0BFF9022002F0C6
:1026C000B0F9002002F0ADF9032002F0AAF90020D1
:1026D00002F0A7F9042002F0A4F9002002F0A1F909
:1026E000B62002F0AAF9002002F09BF9002002F0C7
:1026F00098F9B72002F0A1F9002002F092F9002029
:1027000002F08FF93F2002F08CF9002002F089F9E5
:102710005E2002F086F9002002F083F9642002F0C6
:1027200080F9002002F07DF98C2002F07AF9002077
:1027300002F077F9AC2002F074F9002002F071F990
:10274000DC2002F06EF9002002F06BF9702002F03C
:1027500068F9002002F065F9902002F062F900208B
:1027600002F05FF9EB2002F05CF9002002F059F969
:10277000DC2002F056F9002002F053F9B82002F0F4
:102780005CF9002002F04DF9002002F04AF9002027
:1027900002F047F9002002F044F9002002F041F96C
:1027A000002002F03EF9002002F03BF9002002F088
:1027B00038F9BA2002F041F9242002F032F9002061
:1027C00002F02FF9002002F02CF9002002F029F984
:1027D000C12002F032F9202002F023F9002002F09B
:1027E00020F9542002F01DF9002002F01AF9FF2010
:1027F00002F017F9002002F014F9C22002F01DF9CE
:102800000A2002F00EF9002002F00BF9042002F079
:1028100008F9002002F005F9C32002F00EF93C206F
:1028200002F0FFF8002002F0FCF83A2002F0F9F87C
:10283000002002F0F6F8392002F0F3F8002002F050
:10284000F0F8372002F0EDF8002002F0EAF83C2022
:1028500002F0E7F8002002F0E4F8362002F0E1F898
:10286000002002F0DEF8322002F0DBF8002002F057
:10287000D8F82F2002F0D5F8002002F0D2F82C2052
:1028800002F0CFF8002002F0CCF8292002F0C9F8BD
:10289000002002F0C6F8262002F0C3F8002002F063
:1028A000C0F8242002F0BDF8002002F0BAF824207D
:1028B00002F0B7F8002002F0B4F8232002F0B1F8DB
:1028C000002002F0AEF83C2002F0ABF8002002F04D
:1028D000A8F8362002F0A5F8002002F0A2F8322075
:1028E00002F09FF8002002F09CF82F2002F099F8E7
:1028F000002002F096F82C2002F093F8002002F05D
:1029000090F8292002F08DF8002002F08AF82620A5
:1029100002F087F8002002F084F8242002F081F809
:10292000002002F07EF8242002F07BF8002002F064
:1029300078F8232002F075F8002002F072F8C42025
:1029400002F07BF8622002F06CF8002002F069F8D7
:10295000052002F066F8002002F063F8842002F0FF
:1029600060F8002002F05DF8F02002F05AF8002034
:1029700002F057F8182002F054F8002002F051F845
:10298000A42002F04EF8002002F04BF8182002F0CC
:1029900048F8002002F045F8502002F042F80020EC
:1029A00002F03FF80C2002F03CF8002002F039F869
:1029B000172002F036F8002002F033F8952002F0DC
:1029C00030F8002002F02DF8F32002F02AF8002061
:1029D00002F027F8E62002F024F8002002F021F8A7
:1029E000C52002F02AF8322002F01BF8002002F085
:1029F00018F8442002F015F8002002F012F86520C3
:102A000002F00FF8002002F00CF8762002F009F82E
:102A1000002002F006F8882002F003F8002002F0FF
:102A200000F8C62002F009F8202001F0FAFF00208B
:102A300001F0F7FF172001F0F4FF002001F0F1FF93
:102A4000012001F0EEFF002001F0EBFFC72001F0B4
:102A5000F4FF002001F0E5FF002001F0E2FF00207C
:102A600001F0DFFF002001F0DCFFC82001F0E5FFEE
:102A7000002001F0D6FF002001F0D3FF002001F07C
:102A8000D0FF002001F0CDFFC92001F0D6FF0020CB
:102A900001F0C7FF002001F0C4FF002001F0C1FFDA
:102AA000002001F0BEFF002001F0BBFF002001F07C
:102AB000B8FF002001F0B5FF002001F0B2FF0020B8
:102AC00001F0AFFF002001F0ACFF002001F0A9FFF2
:102AD000002001F0A6FF002001F0A3FF002001F07C
:102AE000A0FF002001F09DFF002001F09AFFE020F0
:102AF00001F0A3FF162001F094FF002001F091FFE8
:102B00001C2001F08EFF002001F08BFF212001F03E
:102B100088FF002001F085FF362001F082FF0020B1
:102B200001F07FFF462001F07CFF002001F079FFDB
:102B3000522001F076FF002001F073FF642001F0C5
:102B400070FF002001F06DFF7A2001F06AFF002085
:102B500001F067FF8B2001F064FF002001F061FFAE
:102B6000992001F05EFF002001F05BFFA82001F03A
:102B700058FF002001F055FFB92001F052FF00205E
:102B800001F04FFFC42001F04CFF002001F049FF8D
:102B9000CA2001F046FF002001F043FFD22001F0DF
:102BA00040FF002001F03DFFD92001F03AFF002056
:102BB00001F037FFE02001F034FF002001F031FF89
:102BC000F32001F02EFF002001F02BFFE12001F0A7
:102BD00034FF162001F025FF002001F022FF1C2009
:102BE00001F01FFF002001F01CFF222001F019FF5F
:102BF000002001F016FF362001F013FF002001F045
:102C000010FF452001F00DFF002001F00AFF5220C7
:102C100001F007FF002001F004FF642001F001FF34
:102C2000002001F0FEFE7A2001F0FBFE002001F002
:102C3000F8FE8B2001F0F5FE002001F0F2FE992055
:102C400001F0EFFE002001F0ECFEA82001F0E9FE0B
:102C5000002001F0E6FEB92001F0E3FE002001F0C3
:102C6000E0FEC42001F0DDFE002001F0DAFECA2003
:102C700001F0D7FE002001F0D4FED22001F0D1FEF9
:102C8000002001F0CEFED82001F0CBFE002001F0A4
:102C9000C8FEE02001F0C5FE002001F0C2FEF320D6
:102CA00001F0BFFE002001F0BCFEE22001F0C5FEF5
:102CB000052001F0B6FE002001F0B3FE0B2001F06C
:102CC000B0FE002001F0ADFE1B2001F0AAFE0020A6
:102CD00001F0A7FE342001F0A4FE002001F0A1FEC7
:102CE000442001F09EFE002001F09BFE4F2001F0E9
:102CF00098FE002001F095FE612001F092FE002078
:102D000001F08FFE792001F08CFE002001F089FE99
:102D1000882001F086FE002001F083FE972001F05C
:102D200080FE002001F07DFEA62001F07AFE00204A
:102D300001F077FEB72001F074FE002001F071FE73
:102D4000C22001F06EFE002001F06BFEC72001F0F2
:102D500068FE002001F065FED12001F062FE002037
:102D600001F05FFED62001F05CFE002001F059FE6C
:102D7000DD2001F056FE002001F053FEF32001F0AB
:102D800050FE002001F04DFEE32001F056FE05202C
:102D900001F047FE002001F044FE0A2001F041FE50
:102DA000002001F03EFE1C2001F03BFE002001F05F
:102DB00038FE332000E0FAE201F033FE002001F09B
:102DC00030FE442001F02DFE002001F02AFE5020AC
:102DD00001F027FE002001F024FE622001F021FE18
:102DE000002001F01EFE782001F01BFE002001F003
:102DF00018FE882001F015FE002001F012FE972039
:102E000001F00FFE002001F00CFEA62001F009FEEB
:102E1000002001F006FEB72001F003FE002001F0C3
:102E200000FEC22001F0FDFD002001F0FAFDC720E8
:102E300001F0F7FD002001F0F4FDD12001F0F1FDDB
:102E4000002001F0EEFDD52001F0EBFD002001F0A7
:102E5000E8FDDD2001F0E5FD002001F0E2FDF320BA
:102E600001F0DFFD002001F0DCFDE42001F0E5FDD4
:102E7000012001F0D6FD002001F0D3FD012001F07A
:102E8000D0FD002001F0CDFD022001F0CAFD0020A0
:102E900001F0C7FD2A2001F0C4FD002001F0C1FDB2
:102EA0003C2001F0BEFD002001F0BBFD4B2001F0F5
:102EB000B8FD002001F0B5FD5D2001F0B2FD00205D
:102EC00001F0AFFD742001F0ACFD002001F0A9FD80
:102ED000842001F0A6FD002001F0A3FD932001F065
:102EE000A0FD002001F09DFDA22001F09AFD002030
:102EF00001F097FDB32001F094FD002001F091FD59
:102F0000BE2001F08EFD002001F08BFDC42001F0F9
:102F100088FD002001F085FDCD2001F082FD00201C
:102F200001F07FFDD32001F07CFD002001F079FD50
:102F3000DD2001F076FD002001F073FDF32001F0AB
:102F400070FD002001F06DFDE52001F076FD002010
:102F500001F067FD002001F064FD002001F061FD3B
:102F6000002001F05EFD022001F05BFD002001F079
:102F700058FD292001F055FD002001F052FD3C20B4
:102F800001F04FFD002001F04CFD4B2001F049FD08
:102F9000002001F046FD5D2001F043FD002001F01E
:102FA00040FD742001F03DFD002001F03AFD842039
:102FB00001F037FD002001F034FD932001F031FDD8
:102FC000002001F02EFDA22001F02BFD002001F0D9
:102FD00028FDB32001F025FD002001F022FDBE20D8
:102FE00001F01FFD002001F01CFDC42001F019FDBF
:102FF000002001F016FDCD2001F013FD002001F0AE
:1030000010FDD32001F00DFD002001F00AFDDC20B1
:1030100001F007FD002001F004FDF32001F001FDA7
:10302000002001F0FEFCE62001F007FD112001F078
:10303000F8FC002001F0F5FC342001F0F2FC002047
:1030400001F0EFFC562001F0ECFC002001F0E9FC5F
:10305000762001F0E6FC002001F0E3FC772001F08F
:10306000E0FC002001F0DDFC662001F0DAFC00202D
:1030700001F0D7FC882001F0D4FC002001F0D1FC45
:10308000992001F0CEFC002001F0CBFCBB2001F028
:10309000C8FC002001F0C5FC992001F0C2FC002012
:1030A00001F0BFFC662001F0BCFC002001F0B9FC7F
:1030B000552001F0B6FC002001F0B3FC552001F0D2
:1030C000B0FC002001F0ADFC452001F0AAFC00207E
:1030D00001F0A7FC432001F0A4FC002001F0A1FCBA
:1030E000442001F09EFC002001F09BFCE72001F051
:1030F000A4FC322001F095FC002001F092FC552048
:1031000001F08FFC002001F08CFC762001F089FC9E
:10311000002001F086FC662001F083FC002001F015
:1031200080FC672001F07DFC002001F07AFC672024
:1031300001F077FC002001F074FC872001F071FCA5
:10314000002001F06EFC992001F06BFC002001F0E2
:1031500068FCBB2001F065FC002001F062FC9920B6
:1031600001F05FFC002001F05CFC772001F059FCCD
:10317000002001F056FC442001F053FC002001F037
:1031800050FC562001F04DFC002001F04AFC2320A9
:1031900001F047FC002001F044FC332001F041FC29
:1031A000002001F03EFC452001F03BFC002001F036
:1031B00038FCE82001F041FC002001F032FC002046
:1031C00001F02FFC992001F02CFC002001F029FCDB
:1031D000872001F026FC002001F023FC882001F06C
:1031E00020FC002001F01DFC772001F01AFC0020DB
:1031F00001F017FC662001F014FC002001F011FC26
:10320000882001F00EFC002001F00BFCAA2001F048
:1032100008FC002001F005FCBB2001F002FC0020AE
:1032200001F0FFFB992001F0FCFB002001F0F9FB0D
:10323000662001F0F6FB002001F0F3FB552001F0C1
:10324000F0FB002001F0EDFB552001F0EAFB00202F
:1032500001F0E7FB442001F0E4FB002001F0E1FB7A
:10326000442001F0DEFB002001F0DBFB552001F0E3
:10327000D8FB002001F0D5FBE92001F0DEFBAA20FD
:1032800001F0CFFB002001F0CCFB002001F0C9FBD6
:10329000002001F0C6FB002001F0CFFBAA2001F0C6
:1032A000C0FBCF2001F0C9FB002001F0BAFB0020D9
:1032B00001F0B7FB002001F0B4FB002001F0B1FBEE
:1032C000002001F0AEFB002001F0ABFB002001F07C
:1032D000A8FB002001F0A5FB002001F0A2FB0020CC
:1032E00001F09FFB002001F09CFB002001F099FB06
:1032F000002001F096FB002001F093FB002001F07C
:1033000090FB002001F08DFB002001F08AFBF020F3
:1033100001F093FB002001F084FB502001F081FBC1
:10332000002001F07EFB002001F07BFB002001F07B
:1033300078FBF32001F081FB002001F072FBF92003
:1033400001F07BFB062001F06CFB102001F069FB13
:10335000292001F066FB002001F063FB3A2001F018
:103360006CFB552001F05DFB112001F066FB642031
:1033700007F0F2F8292001F060FB352001F05DFB39
:10338000002001F04EFB512001F057FBFF2001F01F
:1033900048FB532001F051FB2C2001F042FB55204B
:1033A00001F04BFB822001F03CFB2C20FEE3A84205
:1033B0007ED155215346504601F056FBAA215C466A
:1033C000584601F051FB4FF202055221284601F008
:1033D0004BFB6E1C0821304601F046FBAF1C01215F
:1033E000384601F041FB0D214FF4304001F03CFB29
:1033F0000D214BF2010001F037FB0D214BF20200D1
:1034000001F032FB4FF436483421404601F02CFBEA
:1034100034214BF2016001F027FB34214BF20260B2
:1034200001F022FB4FF431490D21484601F01CFB0D
:103430004BF2011A0D21504601F016FB0D214BF203
:10344000021001F011FB4FF4374B3421584601F0C4
:103450000BFB34214BF2017001F006FB34214BF2DF
:10346000027001F001FB00214FF4324001F0FCFA40
:1034700000214BF2012001F0F7FA00214BF202206B
:1034800001F0F2FA24214FF4384001F0EDFA242142
:103490004BF6010001F0E8FA24214BF6020001F09E
:1034A000E3FA01214FF43F4001F0DEFA0F2100E082
:1034B000FEE34FF4334001F0D7FA0F214BF2013015
:1034C00001F0D2FA0F214BF2023001F0CDFA342193
:1034D0004FF4394001F0C8FA34214BF6011001F0E5
:1034E000C3FA34214BF6021001F0BEFA08214FF462
:1034F000354001F0B9FA08214BF2015001F0B4FA5D
:1035000008214BF2025001F0AFFA03214FF4424080
:1035100001F0AAFA24214FF43A4001F0A5FA24213F
:103520004BF6012001F0A0FA24214BF6022001F015
:103530009BFA00214FF43C4001F096FA78214BF6BB
:10354000014001F091FA00214BF6024001F08CFAA3
:1035500000214FF43D4001F087FA78214BF60150ED
:1035600001F082FA00214BF6025001F07DFA0021B1
:103570004FF43E4001F078FA64214BF6016001F00F
:1035800073FA00214FF4514001F06EFA33214DF2ED
:10359000011001F069FA00214DF2021001F064FA05
:1035A00034214DF2031001F05FFA00214DF20410B6
:1035B00001F05AFA3A214DF2051001F055FA0021B6
:1035C0004DF2061001F050FA4A214DF2071001F0B9
:1035D0004BFA00214DF2081001F046FA5C214DF241
:1035E000091001F041FA00214DF20A1001F03CFAF5
:1035F00081214DF20B1001F037FA00214DF20C1031
:1036000001F032FAA6214DF20D1001F02DFA002141
:103610004DF20E1001F028FAE5214DF20F1001F0E5
:1036200023FA01214DF2101001F01EFA13214DF280
:10363000111001F019FA01214DF2121001F014FAE3
:1036400054214DF2131001F00FFA01214DF2141024
:1036500001F00AFA82214DF2151001F005FA01215C
:103660004DF2161001F000FACA214DF2171001F0C8
:10367000FBF902214DF2181001F0F6F900214DF28C
:10368000191001F0F1F902214DF21A1001F0ECF9D4
:1036900001214DF21B1001F0E7F902214DF21C103F
:1036A00001F0E2F934214DF21D1001F0DDF90221A3
:1036B0004DF21E1001F0D8F967214DF21F1001F0F4
:1036C000D3F902214DF2201001F0CEF984214DF200
:1036D000211001F0C9F902214DF2221001F0C4F9C4
:1036E000A4214DF2231001F0BFF902214DF2241064
:1036F00001F0BAF9B7214DF2251001F0B5F9022118
:103700004DF2261001F0B0F9CF214DF2271001F053
:10371000ABF902214DF2281001F0A6F9DE214DF29D
:10372000291001F0A1F902214DF22A1001F09CF9B3
:10373000F2214DF22B1001F097F902214DF22C10DD
:1037400001F092F9FE214DF22D1001F08DF90321C7
:103750004DF22E1001F088F910214DF22F1001F0DA
:1037600083F903214DF2301001F07EF933214DF23F
:10377000311001F079F903214DF2321001F074F9A2
:103780006D214DF2331001F06FF900214FF45240DA
:1037900001F06AF933214DF2012001F065F90021B1
:1037A0004DF2022001F060F934214DF2032001F0C6
:1037B0005BF900214DF2042001F056F93A214DF257
:1037C000052001F051F900214DF2062001F04CF9DD
:1037D0004A214DF2072001F047F900214DF208205F
:1037E00001F042F95C214DF2092001F03DF9002180
:1037F0004DF20A2001F038F981214DF20B2001F041
:1038000033F900214DF20C2001F02EF9A6214DF2E2
:103810000D2001F029F900214DF20E2001F024F9CC
:10382000E5214DF20F2001F01FF901214DF210208A
:1038300001F01AF913214DF2112001F015F90121BF
:103840004DF2122001F010F954214DF2132001F035
:103850000BF901214DF2142001F006F982214DF2FD
:10386000152001F001F901214DF2162001F0FCF8BC
:10387000CA214DF2172001F0F7F802214DF218206D
:1038800001F0F2F800214DF2192001F0EDF80221CB
:103890004DF21A2001F0E8F801214DF21B2001F051
:1038A000E3F802214DF21C2001F0DEF834214DF244
:1038B0001D2001F0D9F802214DF21E2001F0D4F8AC
:1038C00067214DF21F2001F0CFF802214DF2202098
:1038D00001F0CAF884214DF2212001F0C5F802213F
:1038E0004DF2222001F0C0F8A4214DF2232001F076
:1038F000BBF802214DF2242001F0B6F8B7214DF2B9
:10390000252001F0B1F802214DF2262001F0ACF89B
:10391000CF214DF2272001F0A7F802214DF22820F7
:1039200001F0A2F8DE214DF2292001F09DF80221DC
:103930004DF22A2001F098F8F2214DF22B2001F0EF
:1039400093F802214DF22C2001F08EF8FE214DF269
:103950002D2001F089F803214DF22E2001F084F88A
:1039600010214DF22F2001F07FF803214DF230207D
:1039700001F07AF833214DF2312001F075F803217E
:103980004DF2322001F070F86D214DF2332001F03C
:103990006BF800214FF4534001F066F833214DF2EB
:1039A000013001F061F800214DF2023001F05CF8C5
:1039B00034214DF2033001F057F800214DF204306C
:1039C00001F052F83A214DF2053001F04DF8002196
:1039D0004DF2063001F048F84A214DF2073001F06F
:1039E00043F800214DF2083001F03EF85C214DF221
:1039F000093001F039F800214DF20A3001F034F8B5
:103A000081214DF20B3001F02FF800214DF20C30E6
:103A100001F02AF8A6214DF20D3001F025F8002121
:103A20004DF20E3001F020F8E5214DF20F3001F09B
:103A30001BF801214DF2103001F016F813214DF260
:103A4000113001F011F801214DF2123001F00CF8A3
:103A500054214DF2133001F007F801214DF21430DA
:103A600001F002F882214DF2153000F0FDFF012136
:103A70004DF2163000F0F8FFCA214DF2173000F079
:103A8000F3FF02214DF2183000F0EEFF00214DF25D
:103A9000193000F0E9FF02214DF21A3000F0E4FF86
:103AA00001214DF21B3000F0DFFF02214DF21C30EE
:103AB00000F0DAFF34214DF21D3000F0D5FF022175
:103AC0004DF21E3000F0D0FF67214DF21F3000F0A4
:103AD000CBFF02214DF2203000F0C6FF84214DF2D1
:103AE000213000F0C1FF02214DF2223000F0BCFF76
:103AF000A4214DF2233000F0B7FF02214DF2243013
:103B000000F0B2FFB7214DF2253000F0ADFF0221E9
:103B10004DF2263000F0A8FFCF214DF2273000F003
:103B2000A3FF02214DF2283000F09EFFDE214DF26E
:103B3000293000F099FF02214DF22A3000F094FF65
:103B4000F2214DF22B3000F08FFF02214DF22C308C
:103B500000F08AFFFE214DF22D3000F085FF032199
:103B60004DF22E3000F080FF10214DF22F3000F08A
:103B70007BFF03214DF2303000F076FF33214DF210
:103B8000313000F071FF03214DF2323000F06CFF54
:103B90006D214DF2333000F067FF00214FF45440A7
:103BA00000F062FF33214DF2014000E07DE300F0C0
:103BB0005BFF00214DF2024000F056FF34214DF230
:103BC000034000F051FF00214DF2044000F04CFF93
:103BD0003A214DF2054000F047FF00214DF206402A
:103BE00000F042FF4A214DF2074000F03DFF002166
:103BF0004DF2084000F038FF5C214DF2094000F022
:103C000033FF00214DF20A4000F02EFF81214DF2DA
:103C10000B4000F029FF00214DF20C4000F024FF82
:103C2000A6214DF20D4000F01FFF00214DF20E4085
:103C300000F01AFFE5214DF20F4000F015FF0121C1
:103C40004DF2104000F010FF13214DF2114000F032
:103C50000BFF01214DF2124000F006FF54214DF2FE
:103C6000134000F001FF01214DF2144000F0FCFE72
:103C700082214DF2154000F0F7FE01214DF2164071
:103C800000F0F2FECA214DF2174000F0EDFE0221D5
:103C90004DF2184000F0E8FE00214DF2194000F00E
:103CA000E3FE02214DF21A4000F0DEFE012100E0A9
:103CB000FEE24DF21B4000F0D7FE02214DF21C4007
:103CC00000F0D2FE34214DF21D4000F0CDFE022165
:103CD0004DF21E4000F0C8FE67214DF21F4000F07B
:103CE000C3FE02214DF2204000F0BEFE84214DF2C1
:103CF000214000F0B9FE02214DF2224000F0B4FE56
:103D0000A4214DF2234000F0AFFE02214DF22440E9
:103D100000F0AAFEB7214DF2254000F0A5FE0221D9
:103D20004DF2264000F0A0FECF214DF2274000F0DA
:103D30009BFE02214DF2284000F096FEDE214DF25E
:103D4000294000F091FE02214DF22A4000F08CFE45
:103D5000F2214DF22B4000F087FE02214DF22C4063
:103D600000F082FEFE214DF22D4000F07DFE032189
:103D70004DF22E4000F078FE10214DF22F4000F061
:103D800073FE03214DF2304000F06EFE33214DF200
:103D9000314000F069FE03214DF2324000F064FE34
:103DA0006D214DF2334000F05FFE00214FF455408D
:103DB00000F05AFE33214DF2015000F055FE002173
:103DC0004DF2025000F050FE34214DF2035000F04D
:103DD0004BFE00214DF2045000F046FE3A214DF218
:103DE000055000F041FE00214DF2065000F03CFE6F
:103DF0004A214DF2075000F037FE00214DF20850E5
:103E000000F032FE5C214DF2095000F02DFE002141
:103E10004DF20A5000F028FE81214DF20B5000F0C7
:103E200023FE00214DF20C5000F01EFEA6214DF2A3
:103E30000D5000F019FE00214DF20E5000F014FE5E
:103E4000E5214DF20F5000F00FFE01214DF2105010
:103E500000F00AFE13214DF2115000F005FE012181
:103E60004DF2125000F000FE54214DF2135000F0BC
:103E7000FBFD01214DF2145000F0F6FD82214DF2C0
:103E8000155000F0F1FD01214DF2165000F0ECFD4F
:103E9000CA214DF2175000F0E7FD02214DF21850F3
:103EA00000F0E2FD00214DF2195000F0DDFD02218D
:103EB0004DF21A5000F0D8FD01214DF21B5000F0D8
:103EC000D3FD02214DF21C5000F0CEFD34214DF205
:103ED0001D5000F0C9FD02214DF21E5000F0C4FD3E
:103EE00067214DF21F5000F0BFFD02214DF220501E
:103EF00000F0BAFD84214DF2215000F0B5FD022101
:103F00004DF2225000F0B0FDA4214DF2235000F0FC
:103F1000ABFD02214DF2245000F0A6FDB7214DF279
:103F2000255000F0A1FD02214DF2265000F09CFD2D
:103F3000CF214DF2275000F097FD02214DF228507D
:103F400000F092FDDE214DF2295000F08DFD02219E
:103F50004DF22A5000F088FDF2214DF22B5000F076
:103F600083FD02214DF22C5000F07EFDFE214DF22A
:103F70002D5000F079FD03214DF22E5000F074FD1C
:103F800010214DF22F5000F06FFD03214DF2305003
:103F900000F06AFD33214DF2315000F065FD032140
:103FA0004DF2325000F060FD6D214DF2335000F0C3
:103FB0005BFD00214FF4564000F056FD33214DF2D9
:103FC000016000F051FD00214DF2026000F04CFD57
:103FD00034214DF2036000F047FD00214DF20460F2
:103FE00000F042FD3A214DF2056000F03DFD002158
:103FF0004DF2066000F038FD4A214DF2076000F0F6
:1040000033FD00214DF2086000F02EFD5C214DF2E1
:10401000096000F029FD00214DF20A6000F024FD46
:1040200081214DF20B6000F01FFD00214DF20C606C
:1040300000F01AFDA6214DF20D6000F015FD0021E3
:104040004DF20E6000F010FDE5214DF20F6000F022
:104050000BFD01214DF2106000F006FD13214DF221
:10406000116000F001FD01214DF2126000F0FCFC36
:1040700054214DF2136000F0F7FC01214DF2146061
:1040800000F0F2FC82214DF2156000F0EDFC012100
:104090004DF2166000F0E8FCCA214DF2176000F006
:1040A000E3FC02214DF2186000F0DEFC00214DF22D
:1040B000196000F0D9FC02214DF21A6000F0D4FC26
:1040C00001214DF21B6000F0CFFC02214DF21C607B
:1040D00000F0CAFC34214DF21D6000F0C5FC022145
:1040E0004DF21E6000F0C0FC67214DF21F6000F031
:1040F000BBFC02214DF2206000F0B6FC84214DF2A1
:10410000216000F0B1FC02214DF2226000F0ACFC15
:10411000A4214DF2236000F0A7FC02214DF224609F
:1041200000F0A2FCB7214DF2256000F09DFC0221B9
:104130004DF2266000F098FCCF214DF2276000F090
:1041400093FC02214DF2286000F08EFCDE214DF23E
:10415000296000F089FC02214DF22A6000F084FC05
:10416000F2214DF22B6000F07FFC02214DF22C6019
:1041700000F07AFCFE214DF22D6000F075FC032169
:104180004DF22E6000F070FC10214DF22F6000F017
:104190006BFC03214DF2306000F066FC33214DF2E0
:1041A000316000F061FC03214DF2326000F05CFCF4
:1041B0006D214DF2336000F057FC5521184600F098
:1041C00053FCAA21204600F04FFC5221284600F063
:1041D0004BFC0821304600F047FC0021384600F037
:1041E00043FCCC21484600F03FFC0021504600F043
:1041F0003BFC0521404600F037FC7021584600F09A
:1042000033FC70214BF2017000F02EFC01214FF4C1
:10421000384000F029FC03214BF6010000F024FC9B
:1042200003214BF6020000F01FFC03214BF60300B4
:1042300000F01AFC02214FF43C4000F015FC002174
:104240004BF6014000F010FC00214BF6024000F05C
:104250000BFCD0214FF4494000F006FC02214CF643
:10426000011000F001FC50214CF6021000F0FCFBA4
:1042700050214CF6031000F0F7FB50214CF60410CF
:1042800000F0F2FB00214FF4545000F0EDFB5521FB
:104290004FF4685000F0E8FB4FF4885000F0CDFB7D
:1042A000782006F075F94FF4245000F0C6FBB9E011
:1042B0004045FCD1E22000F0C0FB1D2000F0B1FB26
:1042C000022000F0AEFB042000F0ABFB642006F0FF
:1042D0005FF9E02000F0B1FB012000F0A2FB0A2012
:1042E00006F03AF9E02000F0A8FB032000F099FB6B
:1042F0000C2006F031F9012000F09FFB0A2006F0A7
:104300002BF9E62000F099FB2F2000F08AFBFF201C
:1043100000F087FBFF2000F084FBB02000F08DFB55
:10432000202000F07EFB002000F07BFB032000F04B
:1043300078FB40F21F3000F074FB012000F071FBAD
:1043400040F2DF1000F06DFB002000F06AFBB420AB
:1043500000F073FB042000F064FB40F21F4000F00B
:1043600060FB002000F05DFB2E2000F05AFB0020D7
:1043700000F057FB002000F054FB002000F051FB40
:10438000002000F04EFBB62000F057FB022000F0AA
:1043900048FB4FF4037000F044FB002000F041FBA9
:1043A000172000F03EFB152000F03BFB002000F042
:1043B00038FB002000F035FBF02000F03EFB03202E
:1043C00000F02FFB292000F038FBD02000F035FB57
:1043D000002000F026FBBE2000F02FFB052000F09F
:1043E00020FBFE2000F01DFB012000F01AFB002046
:1043F00000F017FB002000F014FB002000F011FB80
:10440000B82000F01AFB032000F00BFB012000F0A5
:1044100008FBBA2000F011FB012000F002FB642031
:1044200000F022F80120FDF707FB05490120C1F843
:10443000BC024FF6FF70FDF7E7FA21B0BDE8F08F40
:10444000008040420246012000E05043491EC9B2AC
:10445000FBD2704708B54FF0D840B0F88000ADF8F7
:104460000000BDF8000008BD10B50246BE2000F0F7
:10447000E4FA052000F0D5FA1046FCF789F89FED24
:104480000C1B53EC112BFCF711F8FCF78EF880B2E3
:1044900000F0C7FA012000F0C4FAFF2000F0C1FAD2
:1044A000002000F0BEFABDE81040002000F0B9BACC
:1044B000666666666666044070B55E4C00232146FB
:1044C000A279898841F66316012A01D01AB10CE05D
:1044D000B14202D109E0B14207D1082805D2DFE894
:1044E00000F0161812140C19100E082812D2DFE86A
:1044F00000F0110406080A0C0E1080230AE0402385
:1045000008E0C02306E0202304E0602302E0A023AB
:1045100000E0E02345F21055A94202D14FF4585073
:1045200000E03620A1F51342413A03D0A1F5EE4256
:10453000893A01D143F00803194600F095FAA188A1
:10454000B1420AD098062088628802D5904202D3F0
:1045500003E0904201D9228060806089A94240D165
:1045600000F06BFA002000F05CFA6089401C80B219
:1045700000F063FA002000F054FA6089801C80B2D9
:1045800000F05BFA2088401EC0F30F2000F049FACB
:104590006089C01C80B200F050FA2078401EC0B282
:1045A00000F03FFAA08900F048FA002000F039FA44
:1045B000A089401C80B200F040FA002000F031FADF
:1045C000A089801C80B200F038FA6088401EC0F3D9
:1045D0000F2000F026FAA089C01C80B200F02DFA4E
:1045E00021E000F02AFA002000F01BFA002000F081
:1045F00018FA2088401EC0F30F2000F012FA20782D
:10460000401EC0B200F00DFAA08900F016FA00209A
:1046100000F007FA002000F004FA6088401EC0F3A2
:104620000F2000F0FEF9A078BDE87040401EC0B237
:1046300000F0F7B994570020F0B53B4A0D46044608
:10464000060A918810462F0A4089A1F5C853633B9A
:1046500016D0A1F5AA43103B4CD000F0EEF930463D
:1046600000F0DFF9E0B200F0DCF9908900F0E5F944
:10467000384600F0D6F9E8B2BDE8F04000F0D1B914
:10468000917931B300F0D9F9304600F0CAF9E0B2BF
:1046900000F0C7F91088401EC0F30F2000F0C1F9E8
:1046A0001078401E5FFA80F000F0BBF9908900F0AE
:1046B000C4F9384600F0B5F9E8B200F0B2F9508814
:1046C000401EC0F30F2000F0ACF99078401EC0B23D
:1046D000D2E71188091B491E8CB200F0AEF9002008
:1046E00000F09FF9002000F09CF9200A00F099F9F1
:1046F000E0B2D9E700F0A1F9304600F092F9508914
:10470000401C80B200F099F9E0B200F08AF990897B
:1047100000F093F9384600F084F99089401C80B28B
:1047200000F08BF9A7E70000945700202DE9F04F27
:10473000064699461044401E1FFA80F8504C01EB83
:1047400009000D464FEA112BA3882146401E4989D6
:10475000A3F5C85C87B2BCF1630C26D194F806C0FF
:10476000BCF1010F21D0238887B29B1A9B1B9EB2FC
:10477000084600F062F9300A00F053F9F0B200F098
:1047800050F93244521EC2F30F2000F04AF9D0B261
:1047900000F047F9A08900F050F9584600F041F9BF
:1047A000E8B200F03EF9380A28E005EB0900401EA7
:1047B000C0F3072AB018401EC0F30729320AA3F538
:1047C000A04CBCF5A26C08461FD000F036F910468C
:1047D00000F027F9F0B200F024F9484600F021F982
:1047E00008F0FF0000F01DF9A08900F026F95846F6
:1047F00000F017F9E8B200F014F9504600F011F992
:10480000F8B2BDE8F04F00F00CB900F016F9104610
:1048100000F007F96089401C80B200F00EF9F0B298
:1048200000F0FFF86089801C80B200F006F948466D
:1048300000F0F7F86089C01C80B200F0FEF808F0C4
:10484000FF0000F0EEF8A08900F0F7F8584600F0FD
:10485000E8F8A089401C80B200F0EFF8E8B200F060
:10486000E0F8A089801C80B200F0E7F8504600F024
:10487000D8F8A089C01C80B200F0DFF8C0E70000C3
:10488000945700202DE9FF4F1D460C468A465807D5
:1048900000D0012000EBD500690810FB01F0203AA0
:1048A00000F0FF09D0B20026DFF898B0029044E093
:1048B0000C2D11D0102D14D0182D40D10298224962
:1048C00000EBC00001EB80004FF00008875D380668
:1048D0000CD51E4802880DE002981D4900EB4000EF
:1048E000F0E71C49029801EB0010EDE70D9828B99C
:1048F0001648428821460098FDF7AEF97806070E63
:10490000641CBBF80200A4B2A04218D9A4EB0A00B0
:10491000A84209D100985446401C80B20090BBF8D0
:10492000001081420BD906E008F1010000F0FF08F9
:10493000B8F1080FCBD3761CF6B24E45B8D3BDE81C
:10494000FF8F0000945700201CDB02088C00002021
:10495000B8D002082CD502082DE9FF4F81B00026FF
:10496000DDF838A01D46934681463446B0464FEAEE
:104970005A0727E0281B401EC1B20A20FFF762FD3C
:10498000BBFBF0F00A21B0FBF1F201FB120026B9EB
:10499000691E8C4201DA48B101263030C2B207FBF1
:1049A000049080B25346CDF8008006E007FB0490E7
:1049B00080B253462022CDF800800299FFF762FFB3
:1049C000641CE4B2AC42D5D305B0BDE8F08F2DE94C
:1049D000F84F044600F0FF0910190D46DDE90AB64C
:1049E0001FFA80F8581987B24FF0000A12E04445C8
:1049F00003D305EB0B004C4685B2BD420FD25B469C
:104A000029462046CDF800A0FFF73CFF04EB5B00F1
:104A100084B2761C3278A2F120005E28E7D9BDE886
:104A2000F88F01B5BDF80000ADF80000BDF800003A
:104A30004FF0D841A1F8800008BD01B5BDF80000D5
:104A4000ADF80000BDF800004FF0D841A1F87E009D
:104A500008BD000003484FF0D8410089A1F87E004E
:104A600070470000945700204FF0D84222F87E0F84
:104A7000518070477CB50121202000F0C5FB01204A
:104A80008DF8040000218DF8061003218DF8051023
:104A9000074D4FF4C0648DF807000094694628461E
:104AA000FCF768FD21462846FCF7C5FD7CBD0000EB
:104AB00000140240FEE700002DE9F04100F072FB17
:104AC000254CE06818F03EFB054624A119F082F958
:104AD0000022284661681EF054F828461AF0B8FBF8
:104AE00020691AF001FD064620691AF0FDFC054612
:104AF00020691AF0F9FC0746304600F0F1F9284623
:104B000000F0AAFA3D4600236FF02702082138463C
:104B10001AF022F94FF4AF72962128461DF0BEFE1E
:104B200000228C2128461DF0B9FF606918F00AFBAD
:104B300005460CA119F04EF90022284661681EF0C6
:104B400020F828461AF084FBBDE8F04100224FF41B
:104B5000FA71064820F0A8BD9C01002050616765ED
:104B60005F310000506167655F330000656B0208CC
:104B70007047000030B50F22C47801780123FCB1E2
:104B8000144C246801F1E02104F4E064C4F5E0640D
:104B9000C4F30724C4F10405E2404478AC408578AE
:104BA000154025432A0181F80024007800F01F01F8
:104BB0008B404009800000F1E020C0F8003130BD9A
:104BC00001F01F0083404809800000F1E020C0F898
:104BD000803130BD0CED00E0024908430249086015
:104BE000704700000000FA050CED00E0FEB500245F
:104BF0008DF800400121062000F006FB0220019004
:104C00008DF808408DF80A4003208DF80900012531
:104C10008DF80B5001A91748FCF7ACFC6803019014
:104C20008DF8085001A91448FCF7A4FCFBF75AFEC4
:104C3000124EC6F8B442642006F52D7605F08CFCC1
:104C40003560642005F088FC012000F011F9012294
:104C500069464FF4506000F019F89DF8001008A064
:104C600001F09AFB9DF80000802801D00120FEBDD4
:104C70000020FEBD00040240000802400000414246
:104C80004354502049443A25780D0A002DE9F0415B
:104C900015460E460446FBF7B1FEB220FBF78AFE2E
:104CA000FBF7E6FE200AFBF785FEFBF7E1FEE0B22C
:104CB000FBF780FEFBF7DCFEFBF7A0FEB320FBF763
:104CC00079FEFBF7D5FE00246F1E09E0BC4201D03F
:104CD000012000E00020FBF73FFE3055641CE4B2E9
:104CE000AC42F3D3BDE8F041FBF7A6BE2DE9F14796
:104CF000564E00242DED048B4FF00A0981B0307818
:104D0000DFF84C81401CC0B2B0FBF9F209FB120184
:104D10002746307009B10A2877D2012205A9002060
:104D2000FFF7B4FF9DF81400C10672D000F01F0019
:104D300040F0C000454688F8200001279FED458BD4
:104D40009FED469B95F8200007FA04F108424FD0EA
:104D500044480422694630F81400FFF797FF95F89D
:104D600030009DF80210C0079DF8030000EB012001
:104D700022D0FBF70DFC53EC182BFBF797FBFBF74E
:104D800014FC05EB440AAAF816009DF801009DF8F2
:104D9000001000EB0120FBF7FBFB53EC192BFBF79A
:104DA00085FB9FED311B53EC112BFBF77CFBFBF7D5
:104DB000FCFBAAF80C001BE0FBF7EAFB53EC182BFA
:104DC000FBF774FBFBF7F1FB05EB440AAAF80C00B8
:104DD0009DF801009DF8001000EB0120FBF7D8FBC7
:104DE00053EC192BFBF762FBFBF7DFFBAAF816006D
:104DF000641CE4B2052CA5D30127A989002019B9A8
:104E0000E98A09B98DF8140030709DF81400C006C5
:104E100010D198F82000010602D520F0800007E0AC
:104E20004FF6FF71A8F80C10A8F8161000F0E0007B
:104E300088F820003078F02801D986F8009001B079
:104E40003846BDEC048BBDE8F8870000A2000020C6
:104E5000A80000207B14AE47E17AD43FD881734686
:104E600094F6D23F44E902080000000000008940A7
:104E700008B500218DF8001010B180208DF80000D9
:104E8000012269464FF4506000F001F808BD2DE999
:104E9000F04116460F4604460025FBF7AFFDB22051
:104EA000FBF788FDFBF7E4FD200AFBF783FDFBF72A
:104EB000DFFDE0B2FBF77EFDFBF7DAFD002408E042
:104EC000385DFBF777FDFBF7D3FD050003D1641CCC
:104ED000E4B2B442F4D3FBF7AFFD2846BDE8F0815D
:104EE0002DE9F843044600232822072119F034FF56
:104EF0004FF4AF724FF4AA7120461DF0CFFC002290
:104F00008C2120461DF0CAFD4FF48032002120463E
:104F10001DF083F920461AF0E7FA064620461AF0FB
:104F2000E3FA054620461AF0DFFA804600231A46C7
:104F30000221304619F010FF4FF49677642239466B
:104F400030461DF0ABFC0A2400230D2231462846D2
:104F5000009419F00FFF6422394628461DF09EFC8C
:104F600000230D2229464046009419F003FF6422D5
:104F7000394640461DF092FC304618F0D9FF2F4CC0
:104F8000A06130461EF03EFBE061304617F0DAFCCF
:104F90002062284618F0CCFF606228461EF032FBE3
:104FA000A062284617F0CEFCE062404618F0C0FF31
:104FB000206340461EF026FB6063404617F0C2FCAB
:104FC000A0631834304694E80E00183CFBF770FEDE
:104FD0002434284694E80E00243CFBF769FE303464
:104FE000404694E80E00303CFBF762FE00230822A6
:104FF0001349206A19F0B8FD002308221149E06A1C
:1050000019F0B2FD002308220F49A06B19F0ACFD86
:1050100000231D220D49E06919F0A6FD00231D2281
:105020000B49A06A19F0A0FD606B01B00023BDE838
:10503000F0431D22074919F097BD00009C01002094
:10504000050B0008A10B0008390C0008C90A00086C
:105050008D0B0008250C0008F8B5074600236FF0FB
:10506000E502082119F078FE4FF4AF729621384618
:105070001DF014FC00228C2138461DF00FFD38462F
:1050800018F060F80446002239491DF07AFD39A174
:10509000204618F09FFE142300220121204619F01B
:1050A0005BFE384618F04EF80446002230491DF0E9
:1050B00068FD32A1204618F08DFE19230022072139
:1050C000204619F049FE384618F03CF82D4C0022D5
:1050D0002D49E0631DF055FD2C482DA10278E06BB1
:1050E00018F0ADFE6FF02705AE102B4632460921B1
:1050F000E06B19F031FE384618F024F800222249FE
:1051000020641DF03EFD234821A10278206C18F098
:1051100096FE2B4632460521206C19F01DFE3846BE
:1051200018F010F8064600221B491DF02AFD1BA1AD
:10513000304618F04FFE0425009507231422304610
:10514000E16B19F017FE384617F0FCFF0646002207
:1051500011491DF016FD12A1304618F03BFE0095D6
:10516000072314223046216C19F004FEF8BD00001C
:105170004C010020E6B8A9E5BAA63A00E6B9BFE5B9
:10518000BAA63A009C0100208001002020040020E3
:105190002564000021040020180100200000000008
:1051A0002500000010B51EF0F9F920F03FFA144C6C
:1051B000002202231146A06020F006FAE0600323DB
:1051C00000220121A06820F0FFF9206101230022C4
:1051D0000221A06820F0F8F9606100F0F7F8A068FB
:1051E0001DF074FD01222169A0681DF0DEFC20691C
:1051F00016F0EEFDBDE81040024917F0D1BA0000EC
:105200009C0100205CD90E08044A0029116801D0D5
:10521000014300E0814311607047000030380240D4
:10522000044A0029116801D0014300E08143116064
:105230007047000038380240044A0029116801D044
:10524000014300E081431160704700004038024094
:10525000044A0029116801D0014300E08143116034
:10526000704700004438024070B5204A1168204C55
:1052700011F00C0104D06610042903D0082903D0D2
:1052800004601BE0066019E01849091F0B68C3F3AE
:1052900080550B6803F03F0315B1B6FBF3F301E053
:1052A000B4FBF3F30C680968C4F388146343C1F3D7
:1052B0000141491C4900B3FBF1F1016011680F2362
:1052C00003EA11110B4B5C5C0168E140416014681A
:1052D000072505EA94241C5D21FA04F48460126811
:1052E00005EA52329A5CD140C16070BD0838024074
:1052F0000024F4000000002010B5064C01462046B2
:1053000001F044F88021204600F0A8FF0028F9D0E1
:1053100010BD0000001001400CB50020274901908D
:1053200000900A6842F480320A604FF4A0430A6891
:1053300002F400320092019A521C0192009A12B9B2
:10534000019A9A42F3D10A68920334D50120009061
:105350001A484030026842F08052026018480268E1
:1053600042F4404202601548083002680260026858
:1053700042F400420260026842F4A0520260031F3D
:10538000104A1A600A6842F080720A600A68920144
:10539000FCD50D4A40F205711160016821F003014E
:1053A0000160016841F0020101600168C1F38101FF
:1053B0000229FAD10CBD00900CBD0000003802405B
:1053C0000070004008544007003C024070B51EF0D9
:1053D000E5F817F0B7FE054611A118F0FBFC124CDA
:1053E0000022284661681DF0CCFB0A231A460121E1
:1053F000284619F0B1FC1EF0D1F817F0A3FE0546BF
:105400000AA118F0E7FC0022284661681DF0B9FBEC
:105410002846BDE870400A235A42032119F09CBC7B
:10542000414D20383A3330009C010020EF87AB20FB
:10543000202038302520EF89810000004FF0E02146
:105440000428086903D020F004000861704740F088
:105450000400FAE710B527F0ADFB012803D0BDE842
:10546000104027F091B810BD124810B5016841F402
:10547000700101601048016841F0010101600E4AAD
:1054800000210832116002680C4B1A400260031DB3
:105490000B4A1A60026822F48022026006480C302F
:1054A0000160FFF739FF03494FF000608039086061
:1054B00010BD000088ED00E000380240FFFFF6FE5E
:1054C000103000242DE9F0438846814601218BB03D
:1054D0000802FFF7B1FE1F4F092211463846FCF7BC
:1054E0009AF87815022500908DF8045003208DF865
:1054F000050000248DF8064001268DF807606946F6
:105500003846FCF737F8ADF80880ADF80A40ADF83A
:105510001040114CCDF80C9002A9204600F0D4F8B0
:105520006020ADF81400ADF81660ADF8205005A964
:10553000204600F091F80821204600F0BDF8012136
:10554000204600F05DF80121204600F066F80BB01F
:10555000BDE8F083001402400020004010B50F4C5D
:105560000121204600F063F8012811D10C498A6816
:10557000C868521C40F100008A60C8600A68501C6C
:105580000860142A04D900200860012020F012F8D5
:105590002046BDE81040012100F03CB80004004066
:1055A000900000207FB50C46054601210220FFF740
:1055B00043FE0195ADF800400024104DADF80240C7
:1055C000ADF808406946284600F07EF801221146F1
:1055D000284600F038F80121284600F01EF81D206A
:1055E0008DF80C0001208DF80D008DF80E408DF81F
:1055F0000F0003A8FFF7BEFA7FBD000000040040C3
:105600000029018802D041F0800101E021F08001F1
:1056100001807047C943018270470029018802D088
:1056200041F0010101E021F00101018070470246D3
:105630000020138A92890B4202EA010202D0002A5A
:1056400000D001207047002A828901D00A4300E07F
:105650008A4382817047000030B5028C22F001023B
:105660000284028C8388048B22F0020224F07305EA
:105670000C882C438D8915434A882A430C4DA84237
:1056800002D00C4DA8420DD122F00805CA8923F49E
:1056900040732A4322F004058A882A430D8A1D4359
:1056A0004B8A2B438380048389684163028430BD25
:1056B0000000014000040140028B22F008020A436E
:1056C000028370474163704730B50288164B174C10
:1056D00098420DD0A0420BD0B0F1804F08D0144DAD
:1056E000A84205D0134DA84202D0134DA84203D1C1
:1056F00022F070054A882A43104DA84206D0104D6A
:10570000A84203D022F440750A892A4302804A68DD
:10571000C2620A880285984201D0A04201D1897AEA
:1057200001860121818230BD00000140000401405A
:105730000004004000080040000C00400010004041
:10574000001400402DE9FF4F83B00E46DDE910A99B
:105750004E4907464FF47840DDF8508008804CA051
:105760001024CDE900404B4D9346A0216B882A8838
:105770002820FFF72CF948A0CDE900406B882A8843
:10578000A0217820FFF723F944A0CDE900406B88E1
:105790002A88B4212820FFF71AF941A0CDE900405A
:1057A0006B882A88B4217820FFF711F93DA0CDE954
:1057B00000406B882A88C8212820FFF708F93AA002
:1057C000CDE900406B882A88C8217820FFF7FFF8D0
:1057D00036A0CDE900406B882A88DC212820FFF71D
:1057E000F6F833A0CDE900406B882A88DC217820C8
:1057F000FFF7EDF82FA0CDE900406B882A88F02153
:105800002820FFF7E4F804233A46A0214020009422
:10581000FFF7A2F804233246A02190200094FFF75E
:105820009BF804235A46B42140200094FFF794F8D3
:1058300004230094B4219020069AFFF78DF80423E6
:105840005246C82140200094FFF786F804234A46B8
:10585000C82190200094FFF77FF804230094DC21F6
:105860004020129AFFF778F804230094DC2190205E
:10587000139AFFF771F803234246F0216020009449
:10588000FFF76AF807B0BDE8F08F00008C00002039
:1058900078313A009457002079313A0078323A0052
:1058A00079323A0078333A0079333A0078343A0062
:1058B00079343A006661632069733A002DE9F04F4C
:1058C000DFF800B41F202DED0C8B89B04FF6FF7769
:1058D000002425465E46ABF80000FB4807803846AA
:1058E000FCF792F84FF47848A6F800803846FCF7A9
:1058F0008BF8F648A246A6F800A001684FF0100900
:10590000CDE9009128216423A0220846FFF75FF823
:1059100014214246084600F0AFFAED4E86F820A06A
:105920009FEDEC0A4FF0010886ED090A9FEDEA8B26
:105930009FEDEB9B9FEDECBBDFF8B4A371680120FA
:10594000884796F82000B8EB901F48D120F040001F
:1059500086F8200005A8B18920F8241000EB840007
:10596000641C0025F18AE4B24180012C06D0022C8F
:1059700011D0032C1FD0042C31D13DE014213A4624
:10598000084600F079FABAF800004FF4784214386B
:1059900080B2142121E0BAF800003A46143880B2EF
:1059A000142100F069FABAF802004FF47842143872
:1059B00081B2142011E0BAF802003A46143881B2DC
:1059C000142000F059FABAF802004FF47842143863
:1059D00081B2BAF80000143880B200F04DFA0A2003
:1059E00004F0BAFD6D1CADB2B5F57A7FA6D909B049
:1059F000BDEC0C8BBDE8F08FBDF81400BDF818109D
:105A0000411A00D54942BDF81600BDF81A20801A87
:105A100000D54042494340430844FAF7B9FD41EC00
:105A2000100B00F0C9FC51EC100BFAF7BEFD84B26C
:105A3000BDF81C00BDF82010401A00D54042BDF84A
:105A40001E10BDF82220891A00D54942404301FBAF
:105A50000100FAF79DFD41EC100B00F0ADFC51EC9C
:105A6000100BFAF7A2FD00EE104A80B20090F8EE9B
:105A7000400A00EE100AB8EE401A80EE810A10EEDD
:105A8000100AFAF7ABFD41EC1A0B53EC182BFAF79E
:105A9000B9FD7DD353EC192B51EC1A0BFAF7CAFD63
:105AA000F7D3002C74D000980028FBD0BDF8140068
:105AB000BDF81C10411A00D54942BDF81600BDF8CA
:105AC0001E20801A00D54042494340430844FAF75B
:105AD0005FFD41EC100B00F06FFC51EC100BFAF77E
